:020000040800F2
:10000000287D0020990100082F3F0008293D0008A5
:100010002D3F00088B050008E75F00080000000086
:10002000000000000000000000000000054800087B
:10003000F5070008000000003D3F000807480008E1
:10004000B3010008B3010008B3010008B3010008C0
:10005000B3010008B3010008B3010008B3010008B0
:10006000B3010008B3010008B3010008B3010008A0
:10007000B3010008B30100088907000895070008CC
:10008000B3010008B3010008C1040008B30100086F
:10009000B3010008B3010008B3010008B301000870
:1000A000B3010008B3010008B3010008B301000860
:1000B000B3010008A1480008B3010008B30100081B
:1000C000B3010008B3010008B3010008B301000840
:1000D000ED470008B3010008B3010008B3010008B0
:1000E0003D090008B3010008B3010008B30100088E
:1000F000B3010008B3010008B3010008B301000810
:10010000B3010008713F0008B3010008B301000803
:10011000B3010008B3010008B3010008B3010008EF
:10012000A1070008B3010008B3010008AD070008EB
:10013000B30100084108000831090008B3010008B4
:10014000B3010008B3010008B3010008313F000803
:10015000B3010008B9070008B3010008B3010008A3
:10016000B3010008B3010008B3010008B30100089F
:10017000B3010008B3010008B3010008000000004B
:10018000B3010008DFF80CD000F0FCF8004800478D
:100190007D7B0008287D00200648804706480047F0
:1001A000FEE7FEE7FEE7FEE7FEE7FEE7FEE7FEE727
:1001B000FEE7FEE761480008850100082DE9F05FD1
:1001C0000546002092469B468846064681464024C6
:1001D0001BE0284641464746224600F08AF853462F
:1001E0005A46C01A914110D311461846224600F0D3
:1001F00071F82D1A67EB01084F46224601200021B5
:1002000000F068F817EB00094E41201EA4F101042C
:10021000DFDC484631462A464346BDE8F09F40EAC7
:1002200001039B0703D009E008C9121F08C0042A74
:10023000FAD203E011F8013B00F8013B521EF9D25B
:100240007047D2B201E000F8012B491EFBD2704783
:100250000022F6E710B513460A4604461946FFF792
:10026000F0FF204610BD421C10F8011B0029FBD1F5
:10027000801A704730B504460020034600E05B1C3E
:10028000934203D2E05CCD5C401BF8D030BD70B52A
:10029000064609F065FA046805460A220021304640
:1002A00000F037F82C6070BD30B50B4601460020D9
:1002B0002022012409E021FA02F59D4205D303FA28
:1002C00002F5491B04FA02F52844151EA2F10102A9
:1002D000F1DC30BD202A04DB203A00FA02F10020D4
:1002E00070479140C2F1200320FA03F31943904074
:1002F0007047202A04DB203A21FA02F000217047DF
:1003000021FA02F3D040C2F120029140084319467D
:1003100070472DE9F04791460F4680460446002677
:1003200014F8015B2DB100F03FF80068405DC00794
:10033000F6D12B2D02D02D2D18D0641E4A463946F9
:10034000204600F035F827B13968A14201D1C7F83D
:10035000008071054FF002040BD54042002803DDF8
:1003600009F0FEF90460A007BDE8F08746F4806656
:10037000E4E70028F8DA09F0F3F904606FF00040D0
:10038000F2E70000064C074D06E0E06840F001038C
:1003900094E8070098471034AC42F6D3FFF7F6FE16
:1003A000E49F000804A0000800487047289C00084B
:1003B0002DE9F05F82460078002715468B460AF14A
:1003C0000104B946302801D09DB113E014F8010BA7
:1003D0000127782803D0582801D045B10AE00DB193
:1003E000102D07D10027102514F8010B02E0082575
:1003F00000E00A250026B0460EE005FB080005FBDC
:1004000006F1012701EB10461FFA80F8B6F5803F90
:1004100000D3B94614F8010B294600F018F800285B
:10042000EBDABBF1000F05D00FB1641E00E05446BB
:10043000CBF80040B9F1000F06D009F091F9022184
:100440000160C81EBDE8F09F48EA0640FAE73A2876
:1004500000D2303820F02002412A01D3A2F1370027
:10046000884201D34FF0FF30704770B58C1810F8F8
:10047000015B15F0070301D110F8013B2A1106D1E9
:1004800010F8012B03E010F8016B01F8016B5B1E03
:10049000F9D12B0705D40023521E0DD401F8013BDE
:1004A000FAE710F8013BCB1A921C03E013F8015B4A
:1004B00001F8015B521EF9D5A142D8D3002070BDCE
:1004C000014800F0EFBA00BF983D002080B5044815
:1004D000042101F037FBB0FA80F0400980BD00BF75
:1004E00000180240704700000146264802F0DABCBE
:1004F00080B5244802F0E6FC043818BF012080BD16
:1005000080B500F013F801281CBF012080BD1D48F4
:1005100002F0F4FD00B180BD1A484FF4006102F012
:1005200093FB002818BF012080BD00BFE0B501206B
:100530008DF80700FFF7CAFF10B900208DF80700FB
:100540009DF807008CBD00001CB514460A46014604
:100550000C480093234602F08BFF002818BF0120AF
:100560001CBD00BF704700001CB514460A4601467A
:1005700004480093234603F079F8002818BF0120AF
:100580001CBD00BFC04300207047FEE7002070473D
:100590000020704710B57B4C05490022204604F02E
:1005A00063FB0449204604F059FB002010BD00BF46
:1005B000A4380020783700202DE9F84F4C4E04462F
:1005C0008B462146304604F049FB304604F02CFBB4
:1005D0004848017831B3484FDFF82091DFF820A177
:1005E00000264FF00108DBF80000B5B2A8427CD924
:1005F000605D396808700121386800F0AFF838682C
:10060000421C3A60615D0D2901D00A2905D189F8A3
:100610000080504638600136E5E75245FBD0082996
:10062000F8D0F8E72178412920D0462934D049294B
:1006300048D04D290FD0532949D0562944D061299B
:1006400014D0662928D069293CD076293CD073295A
:100650003DD06D2941D1404C2046FFF704FE81B2C8
:10066000204600F07BF82448254929E02948006805
:10067000013007BF31A01121274800211FBF0160B1
:100680002048012202701FBF2448016024480160F5
:100690001CBF24A0162126E02D4C1021012204F5B8
:1006A000006001F05AFA20464FF40071002201F078
:1006B00054FA28486FF001010161016841F001011D
:1006C000016012E0012100E0022101700DE00D48FF
:1006D000002101700CA00A2105E01F4C2046FFF705
:1006E000C2FD81B2204600F039F80020BDE8F88F45
:1006F000D43A00201D020020C03A00201E02002033
:10070000E43300201C02002053746F707065642174
:100710000D0A0000100200202404014040030020C4
:10072000240200204175746F5472696767657220F6
:1007300053746172746564210D0A0000504C5A2094
:10074000494E5055542044415441210D0A000000A7
:1007500000100240000400403400002010B50A469A
:1007600001460848D0F8B802D0F8140208B10120B8
:1007700010BD044C204604F077FA2046BDE8104036
:1007800004F0D1BAD43A0020014800F037BB00BFD2
:10079000003F0020014800F031BB00BF603F002057
:1007A000014800F02BBB00BFE03D0020014800F0F5
:1007B00025BB00BF403E0020014800F01FBB00BF2A
:1007C000A03E0020026840F2FF31182322EA010116
:1007D000D2B2103A5F2AB2FBF3F204A388BF04310D
:1007E00081659A5CC2650846704700BF0006101616
:1007F000000610167047000081B0A7484FF4FA5168
:100800000068B0FBF1F0009000BF0098411E002886
:100810000091F9D101B07047BCB50446002041F207
:10082000180501902068415941F480114151405907
:100830000190FFF7E1FF206801994151BCBD000024
:100840003D4800F06CBD00BFF8B5044631B14FF42F
:1008500080414FF40060C4E9021001E0D4E90210C5
:100860002268E3692B4E1568002B05EA06054FF454
:10087000007608BF4FF4C06631432943264D084334
:10088000106001201668A84720684021066041607A
:1008900046680120A84720684FF64172466000264E
:1008A0008660C6608169114080318161876901205D
:1008B000A84720688761C661C6690120A8472068EB
:1008C00041F21801154BC66142581A40144B1A43A5
:1008D000425046580120A847206800F580518E619B
:1008E00010494FF48056815187590120A847A169CA
:1008F00020680129875105D100F580500A4AC16955
:100900001143C1616069094A8188116000685060C3
:10091000F8BD00BF0F8120FF85100008233FDEF8DF
:10092000040020028020C1024000010040800240FB
:10093000014800F0F4BC00BF8402002010B5094C4F
:100940004FF48060A0474FF40060A0474FF4805000
:10095000A0474FF40050A0474FF480402146BDE827
:1009600010400847AD19000870470022AFF300801F
:10097000B0B50E4C0346607A012884BF0120B0BD9B
:10098000657A00206055657A04EB85056B60637AB3
:1009900023441A72627A531C3032637242F63A73FD
:1009A000C8700A70A1F80130B0BD00BFC43A002081
:1009B00070470000F8B50022009290F83C20012A10
:1009C00001D1022166E0D1F800C0012280F83C206C
:1009D0001FFA8CF3BCF10A0F03EB430504D3046840
:1009E0001E3D04F10C0602E0046804F1100607271E
:1009F0003268AF40BA4332608A68AA4035682A43F9
:100A000032604D68062D05D805EB850204F13401EE
:100A1000551F0BE005EB85060C2D87BF04F12C015B
:100A2000A6F1410504F13001A6F123051F220E684D
:100A3000AA4026EA02020A6003FA05F20B681A438A
:100A40000A60B349A1F54172944220D1BCF1120F62
:100A500004D10A6842F480020A6018E02CF0010216
:100A6000102A14D10A68BCF1100F42F400020A6087
:100A70000DD10949094A0968B1FBF2F101EB810185
:100A800049000091009911B100990139F9E700215D
:100A900080F83C100846F8BDB800002040420F0026
:100AA00070477047B0B50446006802684168920715
:100AB00017D511F0200114D0216CC90603D4216C84
:100AC00041F400712164816811F0405F02D1A16995
:100AD00000296BD02046FFF7E3FF20686FF012017A
:100AE000016002684168520714D511F0800111D0ED
:100AF000216CC90603D4216C41F400512164816842
:100B000011F4401F25D02046FFF752FF20686FF0F8
:100B10000C01016002684168D20706D011F0400163
:100B20001CBF01685FEAC17134D102684168920656
:100B30000ED511F080610BD0616C6FF0200541F093
:100B40000201616405602046FFF7ABFF2068056085
:100B5000B0BD816B11F4401F02D081684905D2D429
:100B600041684905CFD4816811F0405FCBD1A169BC
:100B70000029C8D1416821F080014160206C20F437
:100B800080502064206CC005BDD4206C40F0010072
:100B90002064B8E7206C40F480302064204600F0E8
:100BA000BFF820686FF001010160BEE7C16A11F46F
:100BB000700F03D0816849053FF58CAF416821F083
:100BC00020014160206C20F480702064206CC004FF
:100BD0003FF580AF206C40F0010020647AE7000010
:100BE000002841D070B50446006C30B9204600F0B2
:100BF00099F8002084F83C006064206CC00635D46D
:100C0000206C41F202118843414902302064086897
:100C100020F44030086094E80D0025690E683243E6
:100C20000A60416821F480714160416841EA052110
:100C30004160416821F04071416041681943354B82
:100C40004160816821F400618160E168826811433C
:100C50008160816821F070618160A26A81689A4236
:100C600006D121F040510CE00120704701204AE0FC
:100C700011438160816821F040518160E16A82689E
:100C800011438160816821F002018160226AA169BB
:100C9000836843EA4101816041686AB141F40061BF
:100CA0001D4A4160416821F460414160616A02EB84
:100CB00041314268114301E021F400614160174D68
:100CC000C16A21F47001C162E2696169236B05EBBD
:100CD0000252C56A2A43C262826822F400728260AC
:100CE000826842EA43228260826822F480628260E3
:100CF000826842EA81210122816000206064216CC7
:100D000062F301012164002184F83C1070BD00BF32
:100D1000042301400100000F00E0FFFF0000F0FF8E
:100D200070470000F0B587B0044602A81421FFF711
:100D30008FFA21682448814243D10026234900F5D7
:100D4000604001964A6942F480724A614A6902F43D
:100D500080720192019A01960A6842F001020A60CB
:100D6000096801F0010101910321049603917821A2
:100D70000291019902A900F023FE154D154F4FF481
:100D800080704FF480414FF480524FF48063C5E986
:100D90000866C5E90076C5E90266C5E90432C5E919
:100DA0000610284600F0E2F808B1FFF7DDFD12203A
:100DB00000210022AC63A56300F046FF122000F082
:100DC00035FF07B0F0BD00BF0020014030380240C1
:100DD000E03D00201064024090F83510022909D14E
:100DE000052180F835100068016821F001010160DB
:100DF000002070478021416501207047F8B5044606
:100E00000020594A08210090D4E916601568376817
:100E1000814039420CD0226813685B0708D51368FB
:100E200023F004031360B160616D41F0010161655D
:100E300001218140394208D022685269120604D546
:100E4000B160616D41F00201616504218140394268
:100E500008D022681268920704D5B160616D41F034
:100E60000401616510218140394217D02068026871
:100E7000120713D5B16002680168520306D4C90590
:100E800006D4016821F00801016001E0080301D4E3
:100E9000216C00E0A16C09B120468847E16D20205B
:100EA00000FA01F23A423BD020680368DB0637D5EE
:100EB000B26094F835300268052B19D122F0160281
:100EC0000260426922F080024261226C0AB9A26C7F
:100ED0001AB1026822F0080202603F208840B06028
:100EE000002084F83400012084F83500216D37E0BB
:100EF000016852030CD4C9050ED4016821F0100119
:100F00000160002084F83400012084F8350003E0FB
:100F1000080301D4616C00E0E16B09B12046884709
:100F2000606D00B3606DC00719D005214FF41650F5
:100F300084F83510B5FBF0F021680A6822F0010250
:100F40000A60009A01328242009202D80A68D207EF
:100F5000F7D1012084F83500002084F83400E16CDA
:100F600009B120468847F8BDB80000202DE9F041BE
:100F7000044600F0F7FDACB10546022084F83500C8
:100F80000020216884F83400086820F0010008601F
:100F90000868C00709D000F0E5FD401B052838D8D7
:100FA0002168F5E70120BDE8F0810868271D344A73
:100FB000E8CF00EA020ED4E9050CD4E9072843EA99
:100FC0000E032B4333433B431843636A40EA0C0050
:100FD0001043042B40EA08021FD1D4E90A53206BC6
:100FE0001A4340EA0200086051F8140F20F0030091
:100FF00040EA050040F00402B3B1BCF5005F24D024
:10100000BCF1000F31D1022D32D0012D27D0002D9F
:101010002DE003262027032012E00A6051F8140F68
:1010200020F0070040EA030220460A60FFF7CAFBEF
:10103000E16D3F220027012602FA01F181600020C4
:10104000676584F83560BDE8F081032DECD8012692
:1010500040270120DFE805F0020C0203F0E7A3F1CE
:10106000C070B0FA80F0400904E0032D04D3DBD156
:10107000C3F300600028D7D0012640270120DFE716
:101080003F8010F0BCB5019000F06CFD04460648AE
:101090000078019D691C18BF054400F063FD001B2A
:1010A000A842FAD3BCBD00BF100000202DE9F843D0
:1010B0000D4690F845100446022001297BD084F8A3
:1010C00044000120002D84F84500206801685FD0AD
:1010D0003A4AD5E90689114095E8CC5011431943A5
:1010E000D4E90223314305F120063943114341EA93
:1010F0000C0141EA0E0119434CCE41EA0801DFF828
:10110000C08041EA09011143194331430160076876
:101110000120C04720680760D5E90BC2D5E90D372B
:10112000D5E90F61D5E911E942EA0C021A433A43C5
:101130003243114341EA0E0141EA09014160466828
:101140000120C0472068466005F14C064ECE816004
:10115000C2604FF6417281691140EA6D314341EA44
:10116000034111432A6E11436A6E1143AA6E114363
:10117000816186690120C04720688661D5E91B121C
:101180001143C161C5690120C0472068C5610CE0F9
:10119000D4E9022321F49041114319430160056809
:1011A0000120FFF76FFF206805600020012184F80F
:1011B000450084F84410BDE8F88300BF0F8120FF8C
:1011C00085100008F0B590F845500224012D2DD06F
:1011D00080F8444001245D1E002644F2F45E4FF086
:1011E000004C816280F8454001F12004B34213D0E5
:1011F00044E907E244F820CC02F2F4528769012F57
:101200000F4608BF44F81CECAE4238BF274644F8EE
:10121000147C20340136E9E7026841F20C03002413
:10122000D150012180F8454080F844102046F0BD9F
:10123000F0B590F845500224012D2FD080F844409D
:1012400001245D1E00264FF4801CC16280F84540D9
:1012500001F12004B34217D044F8182C44F820CCF4
:10126000C7692FB954F8207C47F4400744F8207C24
:101270000F46AE4202F2F45206F1010638BF27468D
:1012800044F8147C2034E5E7026841F2100300249E
:10129000D150012180F8454080F844102046F0BD2F
:1012A000704710B590F845200221012A35D080F80A
:1012B00044100122836A80F84520196800290AD465
:1012C0001968C90509D4196889050CD4D9688162DF
:1012D000816B0131816301211AE0816B4C1C8463B5
:1012E00049B1016B09E000240121C0E90C3481639C
:1012F000DB6883620CE01946036389684363016419
:101300001968DB688362C1F30D410439C1630021B0
:10131000002380F8453080F84420084610BDB0B561
:101320000446006841F214014258520608D40144B0
:101330000968C90712D0204600F0D4FA012103E061
:10134000204600F0E9F94021206841F21402815062
:10135000002184F84510012184F8441041F214055D
:101360004FF480314151405900040CD52046FFF71D
:1013700097FF20684FF400414151002084F8450058
:10138000012084F84400B0BDFEB504460020029060
:10139000B4B394F8440028B9002084F845002046EE
:1013A00000F0DEF800204FF4805601906448016898
:1013B00041F480410160006800F480400190019890
:1013C0006048016821F4000101602168226A036815
:1013D0001A430260885940F00100885100F0C2FBB6
:1013E000054620688159C9070CD000F0BBFB401BA3
:1013F000B0F5FA7FF5D90020032584F845002BE0ED
:1014000001252BE0056901F06FFA4F494F4B421857
:1014100025F01C019A4202D841F008010EE04C4A26
:101420004C4B02449A4202D841F00C0106E04A4A71
:1014300010444A4A904228BF41F0040120684FF40A
:10144000004201612046002100F04DFA40B12046E3
:1014500001210125FFF7F8F984F844502846FEBD24
:10146000FF20FFF70FFE606800284FD000F07AFBE6
:10147000054602AE41F2893720460121324600F08E
:1014800013F900F06FFB401BB84233D29DF80800FF
:101490004007F1D5204600214FF4805200F023FA96
:1014A0000028D4D100F05EFB054602AE41F2893738
:1014B00020460121324600F0F7F800F053FB401BB4
:1014C000B84217D29DF808008006F1D502AA20463E
:1014D0001F2100F0E9F80028B9D102984FF400610B
:1014E00001EAC0114007E16054BF4FF48040002082
:1014F000A0601BE0204601210125FFF7A5F900208F
:1015000084F8450084F844500325A7E7D4E9020194
:10151000400840EAD100002182B2204600F0E3F901
:10152000002894D140F6FF70FFF7ACFD2046002163
:101530000025FFF789F9012084F844008EE700BFF9
:10154000443802400438014000D3CEFEBFE1E4003D
:1015500040F1E9FD3F787D0100796CFC005A6202A0
:101560002DE9F04786B0044601A81421FEF770FE6D
:1015700020684949884240F08C8000264748484C02
:101580004FF00B084FF0030901AD464F4FF0020A30
:101590000096016841F000710160016801F000717E
:1015A000009100990096016841F080610160016836
:1015B00001F08061009100990096016841F000619E
:1015C0000160016801F000610091009900960168D6
:1015D00041F004010160016801F0040100910099EB
:1015E0000096016841F001010160016801F001010C
:1015F000009100990096016841F0020101600168C4
:1016000001F00201009100990096016841F040014B
:1016100001602946006800F0400000900098CDF875
:101620001480CDE90369CDF808A03220019004F5BB
:101630000060B8478620CDE90498CDE902A6294686
:1016400001902046B8474FF40050CDE90498CDE909
:1016500002A62946019004F58060B8474FF4205057
:10166000CDE90498CDE902A62946019004F5C050C1
:10167000B8473D200021002200F0E6FA3D2000F0AE
:10168000D5FA3E200021002200F0DEFA3E2000F0D4
:10169000CDFA06B0BDE8F087008002403038024045
:1016A00000000240C1190008F8B5044690F8440053
:1016B000822804BF0220F8BD8220154684F8440029
:1016C0002068026902F01C0261F38A12218A01F08B
:1016D0001F0142EAC1214F1C076100F043FA064690
:1016E000F80708D000F03EFA801BB0F5803F0BD21F
:1016F00020680769F4E720680121406984F84410F4
:1017000080B228600020F8BD002084F84500012048
:1017100084F844000320F8BD70477CB5044690F877
:1017200045000225012830D084F8445001260025C8
:1017300084F8456000952068016841F00801016067
:1017400000680090FFF758F8206800990160019543
:10175000016841F00401016000680190FFF74CF856
:101760002068019901602046FFF756F8206841F291
:101770001801425842F400524250425842F00202CC
:10178000425084F8455084F8446028467CBD7CB5BE
:10179000044690F845000225012830D084F84450D2
:1017A00041F21801012600252068425822F4005217
:1017B0004250425822F00202425084F8456001959E
:1017C000016821F00401016000680190FFF714F83E
:1017D0002068019901602046FFF71EF800952068F7
:1017E000016821F00801016000680090FFF704F82B
:1017F00020680099016084F8455084F844602846C8
:101800007CBD0000F0B590F845300222012B3FD09E
:10181000012380F8442080F8453081B3C26A136800
:10182000002B2ED440F2F55399420BD340F2F45CD6
:10183000B1FBFCF404FB1C15002D18BF01252C4442
:10184000012C27D11368D4686FF35F3143F0405304
:1018500013605160C462116841F000411160016879
:1018600041F214028A5852074FF0000205D541F2A6
:101870000403194404230B610A60012303E00122DD
:1018800001E001221223002180F8451080F8443045
:101890001046F0BD124D002604FB0511651E01F235
:1018A000F4516FF35F31A642D9D2176827F0405741
:1018B00017601EB9176847F080571760B542C2F825
:1018C00004C004D15160176847F0005717601768CB
:1018D000D368013647F00047C36217601A46E2E753
:1018E0000CFAFFFF704770B5044690F84400422898
:1018F00004BF022070BD422092B284F844002068E8
:101900000369426103F01C0261F38A12218A01F02B
:101910001F0142EAC121CE1C066100F023F90546F1
:10192000F00708D000F01EF9401BB0F5803F07D249
:1019300020680669F4E7012084F84400002070BDA7
:10194000002084F84500012084F84400032070BD85
:10195000B0B5144C0546400506D513480121C170A9
:101960002046012100F0F3F8280506D50E48012194
:1019700001712046802100F0EAF8B5F5804F18BFCC
:10198000B0BD09480121417120464FF4804100F06B
:10199000DEF804F540604FF400710122BDE8B0406C
:1019A00000F0DBB8000402401C02002003490A6872
:1019B000024208BF70470860FFF7CABF143C0140ED
:1019C0002DE9F84F594A4FF0090A4FF0010B4FF03B
:1019D00000084FF0000E9042554A08BF4FF0080A29
:1019E00002444FEAB223082B38BF4FEAB22A002242
:1019F0000E6836FA02F508BFBDE8F88F0BFA02F55B
:101A000016EA050900F085804F68122F00F28780E2
:101A10000BFA07F414F0061F00F08180032303FA89
:101A20000EF48368CE686FEA040CA34306FA0EF640
:101A3000334383603B094668934026EA05052B4300
:101A400055004360C3688C6803EA0C03AC40234331
:101A5000C36047F01003122B11D16FF0030608F09A
:101A60001C030F2406EA52069C400644376A27EA04
:101A700004040F6907FA03F3234333624F680368D2
:101A800007F00304AC4003EA0C0323430360FB00AC
:101A90003FD50023294C274F22F0030500932368EC
:101AA0003D4443F48043236023680F2403F48043C0
:101AB000009308F00C03009E9C400AFA03F3204EAA
:101AC000B446AE5926EA0404234345F80C303B687B
:101AD0004D6843EA0904EE0358BF23EA09043C6059
:101AE000AE037B6843EA090458BF23EA09047C601B
:101AF000EE02BB68104E43EA090458BF23EA09040A
:101B0000BC60AD02336843EA090458BF23EA090404
:101B1000346008F104080EF1020E013268E7032375
:101B2000754603FA0EF46FEA040C8BE700200240BE
:101B30000000FEBF003C01400C3C01404438024024
:101B400008FCFFFF0069084018BF01207047426988
:101B50000A4218BF090481617047002A08BF0904BE
:101B60008161704705480068704700BF1F480349FE
:101B700000780A6810440860704700BF2075002094
:101B800080B50B48016841F400710160016841F4BF
:101B900080610160016841F480710160032000F000
:101BA0006FF8002000F006F800F024F8002080BD57
:101BB000003C024070B50D4E04464FF47A71307807
:101BC000B1FBF0F00A490968B1FBF0F001F086FFC3
:101BD00001250F2C08D838B94FF0FF3021460022DC
:101BE000002500F031F87460284670BD1000002018
:101BF000B800002082B000200B4901904A6842F4EE
:101C000080424A604A6802F480420192019A009040
:101C1000086840F080500860086800F0805000902C
:101C2000009802B0704700BF40380240002808D436
:101C300000F01F010122400902FA01F1014A42F8B5
:101C40002010704700E100E070B5134B4FF0FF35F6
:101C50001B68C3F30223DC1E83F0070338BF002494
:101C6000042B28BF042305FA04F605FA03F3B24354
:101C70009943A1401143BDE8704004F0B5B900BFDD
:101C800005494FF6FF030A681A4060F30A22034829
:101C900010430860704700BF0CED00E00000FA053B
:101CA0000068416200207047B0B50068436AB1B176
:101CB000846A013903EB14430024E5B2A94207D931
:101CC00000EB85050134D5F8045103EB1543F4E727
:101CD00000EB810043EA0241C0F8041102E043EA4C
:101CE000024181620020B0BDD0F8FC0303F0E1B9ED
:101CF000C1EBC10200EB8202D0F8FC03926C03F04E
:101D00003AB9C1EBC10200EB8202D0F8FC03D2F871
:101D1000082203F08FB9D0F8FC0303F0CCB910B55A
:101D2000044601F00F000906C0EBC00104EB81017D
:101D30005DBF002281F8FD2101F5FE71012244BF43
:101D400081F83D203C31087094F8BC03012804BFA1
:101D5000022010BD012084F8BC03206803F076FD4A
:101D6000002084F8BC0310BDB0B5044601F00F009C
:101D70006268904201D9012521E009064FF0000573
:101D8000C0EBC00104EB81015DBF002281F8FD21A1
:101D900001F5FE71012244BF81F83D203C310870FD
:101DA0008D7094F8BC03012801D1022507E00120C1
:101DB00084F8BC03206803F015FF84F8BC53284660
:101DC000B0BD01F00F01C1EBC10100EB8100D0F803
:101DD00014027047B0B5044601F00F000906C0EBCD
:101DE000C00104EB81015DBF002581F8FD5101F5C3
:101DF000FE71012544BF81F83D503C318A60CB70B3
:101E000008704A7802B1C880022B04BF0020087114
:101E100094F8BC03012804BF0220B0BD012084F85F
:101E2000BC03206803F06AFC002084F8BC03B0BD4A
:101E3000B0B501F00F04C4EBC40100EB8105002133
:101E4000C5E9843185F8FD11C5F8082285F8FC4103
:101E500005F5FE710369012B08BFC5F80C22DAB243
:101E6000006814B103F0F2FE01E003F01BFE002055
:101E7000B0BDB0B50446406801F00F05854284BF8F
:101E80000120B0BD080609D4C1EBC100002104EB5C
:101E9000800080F8FD1100F5FE7108E0C5EBC5007B
:101EA000012104EB800080F83D1000F13C0194F822
:101EB000BC2301200D708870012A04BF0220B0BD30
:101EC00084F8BC03206803F0A5FE2DB9217C2068AE
:101ED00004F5717203F05AFE002084F8BC03B0BD13
:101EE00070B501F00F040026C4EBC40100EB8105BE
:101EF000294601F83C4FC1E905360123CA604B7001
:101F00000369012B08BFEA64DAB2006814B103F078
:101F10009DFE01E003F0C6FD002070BD2DE9F04FED
:101F200087B081460068059003F070FF10B107B0DC
:101F3000BDE8F08FD9F8000003F094FF0028F6D038
:101F4000D9F8000003F08EFF0146D9F80000890798
:101F500003D5416901F00201416103F083FF0003F1
:101F600010D4D9F8000003F07DFF400300F1DE80BB
:101F7000D9F8000003F076FF002800F18E81D9F82F
:101F800000009AE1D9F8000003F04BFF064609F57E
:101F9000717009F5057A4FF0000B4FF43068069028
:101FA000002EDED0F00700F0B9805FFA8BF5D9F88B
:101FB0000000294603F04EFF0746C0075ED0059893
:101FC000012140448160D9F8000008EB0004016C55
:101FD000A068D9F81020012A28D1020735D482063A
:101FE0004AD410F0280F49D1DC4A914202D310F4B0
:101FF00000403ED15AE9040101444AF80C1C216911
:102000006FF3DF41401A2946CAF800004846FFF73F
:1020100078FEB8F5306F31D1D9F8100270BBD9F81D
:102020000000069A012103F0B1FD27E0CB4AFF3200
:10203000914205D101041CD4800644BF2020A06039
:1020400048462946FFF75DFE18E0C44A914205D391
:1020500010F400401CBF4FF40040A060484600F060
:102060007CFBD9F80000069A012103F08FFD0820BF
:1020700003E04FF4004000E02020A060380730D596
:10208000D9F8001008EB01000C6C8168D9F8102019
:10209000012A03D1B14A944204D20DE0AF4AFF3283
:1020A000944209D111F4004106D04FF400418160FF
:1020B000484600F052FB06E0484600F04EFBA748B9
:1020C0000138844209D9D9F81000012805D1D9F87E
:1020D0000000069A012103F059FD059808214044AB
:1020E0008160F80603D50598102140448160B80648
:1020F0000DD5D9F81000012805D1D9F80000069AAD
:10210000012103F043FD0598202140448160B8047B
:1021100004D505984FF40051404481600AF11C0A2F
:1021200008F1200876080BF1010B39E7D9F8000017
:1021300003F070FE044609F57170002701900598C0
:1021400000F510660296002C3FF412AFE00700F095
:10215000A180D9F80000F9B2069103F069FE0546A6
:10216000C0072CD0059A07F00F00012303FA00F0F6
:10217000D2F8341821EA0000C2F8340806EB471000
:102180008360D9F81000012807D1C7EBC70009EB1D
:102190008000D0E911121144816406994846FFF786
:1021A000A7FD67B9D9F81000012808D1D9F8500067
:1021B00028B9D9F80000019A012103F0E7FC2807AB
:1021C00042BF06EB471008218160E80642BF06EBDC
:1021D000471010218160680642BF06EB471040217E
:1021E0008160A80742BF06EB4710022181602806E4
:1021F00050D5C7EBC70009EB800AD3465BF8500FF8
:10220000D84658F8042F904244D35AF8441FD9F8BE
:10221000005004943B46841A4F468C4288BF0C46BB
:1022200005EB43110AF10406039301F5106917E069
:102230003C7CDAF8003031680094841A28469C42CD
:1022400088BF1C46069AA3B203F0BCFE3068204447
:102250003060D8F800000219DBF80000C8F8002050
:10226000D9F81830E11C9BB2B3EB910F28BF904214
:10227000DED8B946049CDDE9026790420AD807F02F
:102280000F00012101FA00F0D5F8341821EA00000E
:10229000C5F834086408013755E70599D1F80408F2
:1022A00020F00100C1F80408484600F03AFAD9F8D5
:1022B0000000416901F00041416103F0D3FD0005D8
:1022C00002D4D9F800000DE00598D0F80808C0073E
:1022D00002D0484600F05EFAD9F80000416901F4E6
:1022E0000061416103F0BEFDC00402D4D9F80000D2
:1022F00053E0059C1021D4F8040820F00100C4F834
:102300000408D9F8000003F063FDD9F8042004F5AF
:10231000106104F500604FF67F337AB18B60013AAB
:102320000C6824F400140C60C1F80832D1F80042A3
:1023300024F40014C1F800422031EEE7C16941F0F5
:102340000111C161D9F8301051B1D0F8841041F0B9
:102350000B01C0F8841000F1440108E00B30544F29
:10236000416942F22B021143416100F110010A68F8
:1023700042F00B020A6009F57172016821F4FE61F6
:102380000160D9F8000099F8101003F0FFFBD9F8AC
:102390000000416901F48051416103F063FD014691
:1023A000D9F8000089041AD503F0E6F9D9F800003D
:1023B00003F01EFDD9F80050C9F80C0000F094FAA3
:1023C00099F80C200146284603F084FD484600F0A9
:1023D00093F9D9F80000416901F40051416103F01B
:1023E00041FD0146D9F80000C9063FD5816921F0B9
:1023F000100181610598046AC4F3434004F00F059D
:1024000006281CD002282BD147F6F070044027D0B4
:10241000C5EBC500220909EB80050598D5F808121F
:1024200003F024FDD5F80802D5F8141200EB1410BF
:10243000C5F8080201EB1410C5F8140210E0059865
:1024400009F57171082203F011FDC5EBC50009EB18
:102450008000D0F81412C4F30A121144C0F8141208
:10246000D9F80000816941F01001816103F0FAFCA4
:10247000000702D4D9F8000008E0484600F055F9FA
:10248000D9F80000416901F00801416103F0EAFC5C
:10249000C00202D4D9F8000009E04846002100F04B
:1024A0003AF8D9F80000416901F48011416103F064
:1024B000D9FC800202D4D9F8000009E04846002186
:1024C00000F02DF8D9F80000416901F400114161D4
:1024D00003F0C8FC400002D4D9F8000008E04846E8
:1024E000FFF702FCD9F80000416901F08041416129
:1024F00003F0B8FC40077FF51AADD9F80000446836
:10250000610704D54846FFF706FCD9F8000041688A
:10251000214341600BE5D0F8FC0302F01BBED0F86C
:10252000FC0302F019BE2DE9F04F8BB0002800F03B
:1025300087800446056890F8BD0328B9002084F818
:10254000BC03204600F08CF8032084F8BD03E86B40
:10255000C0055CBF00202061206803F09DFA206860
:1025600004F1140E04F1040B04F1240A0A90D4E9D6
:102570000C509EE8C0509BE80E089AE80007CDE991
:10258000085002A8CDE900B680E8805005A880E890
:1025900000070A9803F00CF900284ED120680021AA
:1025A000002503F070FC616801200022D3B299423B
:1025B00010D9C3EBC30604EB860686F83C20A6F8C8
:1025C000423086F83D003565C6E9115586F83F5022
:1025D0000132EBE700200022D3B299420FD9C3EBBE
:1025E000C30304EB8303C3F81002C3E9810083F83B
:1025F000FC2183F8FF0183F8FD010132ECE7A068BC
:1026000004F1140E04F1240A22680A90D4E90C5053
:10261000D4E9033B9EE8C0509AE80007CDE9085092
:1026200002A8CDE900B680E8805005A880E8000740
:1026300010460A9A03F05AF938B1022084F8BD0313
:10264000012528460BB0BDE8F08F0025012084F855
:10265000385084F8BD03206803F03CF9F1E700002E
:10266000F0B587B0044602A81421FDF7F1FD2068FB
:10267000B0F1A04F3AD100271D4E1E4C02AD01977C
:102680002946306840F001003060306800F00100F9
:1026900001900A2006900320CDE9047002200390E7
:1026A0004FF4E850029001982046FFF789F94FF463
:1026B0000070CDE90377294602902046FFF780F9A4
:1026C00070680021002240F08000706001977069FE
:1026D00040F480407061706900F48040019001987E
:1026E0004320FFF7B1FA4320FFF7A0FA07B0F0BD8F
:1026F000303802400000024010B50446C06828B1DE
:10270000022801D0FEF730F9012100E00021D4F8C1
:10271000FC0302F076FDD4F8FC03BDE8104002F0A3
:1027200032BDD0F8FC0302F056BDD0F8FC0302F035
:102730005CBD10B5044690F8BC03012804BF02201C
:1027400010BD84F83810012084F8BC03206803F021
:10275000B1FB002084F8BC0310BDD0F8FC2300F5C9
:102760007171104602F059BD10B5044690F8BC03D3
:10277000012804BF022010BD012084F8BC0320689A
:1027800003F09CF8206803F00FFB002084F8BC03E2
:1027900010BD000010B50446D0F8FC0302F07AFD2D
:1027A0002068D0F8001E41F00101C0F8001E206A28
:1027B00020B10348016841F00601016010BD00BF6F
:1027C00010ED00E02DE9F04100285FD0434B0446B6
:1027D0000D46D3F8000400F00F00884207D283F8BA
:1027E0000054D3F8000400F00F00A8424ED1206836
:1027F000810711D5410703D5996841F4E0519960EB
:10280000010703D5996841F460419960A1689A680D
:1028100022F0F00211439960C00731D1D3F80004CF
:1028200000F00F00A84207D983F80054D3F8000441
:1028300000F00F00A84229D12068410705D5E168C2
:102840009A6822F4E05211439960000706D5206986
:10285000996821F4604141EAC00098601C4600F08C
:1028600061F8A1681E4AC1F30311515CC8402A49AE
:1028700008601C480068FFF79DF90020BDE8F08162
:102880006068012805D1196889030AD40120BDE8D0
:10289000F0811968022802D18901F7D501E0890782
:1028A000F4D59968984621F0030108439860FFF732
:1028B00059F9064641F288376068D8F8081043464F
:1028C00001F00C01B1EB800FA8D0FFF74BF9801B92
:1028D000B842F1D90320BDE8F08100BF00380240C2
:1028E0002C9C0008140000200B480068704700BFB3
:1028F00009480A490A4A00680968C1F38221515C03
:10290000C840704704480549054A00680968C1F392
:102910004231515CC8407047B8000020083802407E
:102920003C9C000810B5134C606800F00C01124884
:10293000082903D004291CD1104810BD2168236840
:1029400001F03F0221685B02C1F3881105D4A1FBAD
:1029500000010023FDF732FC03E008484843B0FBC8
:10296000F2F021680222C1F3014102EB4101B0FB08
:10297000F1F010BD043802400024F40000127A0087
:102980002DE9FC41002879D004460078AA4EC00702
:102990002BD0B06800F00C00042805D1306880030B
:1029A00023D5606808BB69E0B06800F00C00082817
:1029B00002D170684002F1D46068B0706768FFF7B8
:1029C000D1F8054677B1306880030ED4FFF7CAF816
:1029D000401B6428F7D9C7E0FFF7C4F8411B032068
:1029E000642949D830688003F6D42078800718D548
:1029F000B06810F00C0F07D0B06800F00C00082889
:102A00007CD17068400279D43068800702D5E068D4
:102A1000012833D12069316821F0F80141EAC00072
:102A20003060207800072CD4207840073CD4A76978
:102A30000FB3B06800F00C00082840F09880012F18
:102A40001CD0E169706800F480028A4216D1216AC4
:102A500000F03F028A4211D1616AC0F388128A42B3
:102A60000CD1A16A00F440328A4207D1E16A00F039
:102A70007060884202D10020BDE8FC810120BDE8E1
:102A8000FC8161696D4800295FD00121C0F8801E7A
:102A9000FFF768F80546706F8007C5D4FFF762F846
:102AA000401B0228F7D95FE0306C4FF00008C000EF
:102AB0000CD4CDF804804FF00108306C40F0805009
:102AC0003064306C00F08050019001985C4F3868A1
:102AD00040F4807038603868C00522D4386840F40B
:102AE00080703860FFF73EF805463868C00518D496
:102AF000FFF738F8401B0228F7D935E0E0680028D6
:102B000054D04E4801210160FFF72CF8054630688B
:102B100080073FF57FAFFFF725F8401B0228F6D965
:102B200022E0A06886F87000A768FFF71BF805464A
:102B3000002F4CD041F28837306F800753D4FFF715
:102B400011F8401BB842F7D90EE00021C0F8801EF2
:102B5000FFF708F80546706F80077FF565AFFFF750
:102B600001F8401B0228F6D90320BDE8FC81334957
:102B7000002088460866FEF7F5FF0546022F0AD1B9
:102B800047463068800137D5FEF7ECFF411B032034
:102B90006429F6D970E7306880017FF56CAFFEF7E5
:102BA000E1FF411B03206429F5D965E72348002193
:102BB0000160FEF7D7FF0546306880077FF531AF2B
:102BC000FEF7D0FF411B03200229F5D954E741F25B
:102BD0008837306F800706D5FEF7C4FF411B0320FE
:102BE000B942F6D948E7B8F1000F3FF420AF306C96
:102BF00020F0805030641AE71C341FCC0843D903FE
:102C000040EA82104FF6FF72914340EA0460A1F55A
:102C100080310843706001203866FEF7A3FF044648
:102C2000306880013FF527AFFEF79CFF011B0320B2
:102C30006429F5D920E700BF003802400000474270
:102C400000700040FDF74EBCF0B587B0044603208D
:102C50000D4684F83400606C03280BD14FF080508F
:102C6000A16B0843A063A06B40B320688C498163CB
:102C700001202CE085B3B5F5805FEFD0B5F5006F8E
:102C800040D100200021CDE90400206801F06DF959
:102C900080013AD404A9204601F0D6FC0028DFD1F7
:102CA0009DF8160040072AD5216D2068090401F01F
:102CB00096F90028D4D12068022132E094E80F0070
:102CC000D4E905678DE8E00001F058F90020012102
:102CD00084F8341007B0F0BD00200021CDE90400D5
:102CE000206801F042F980010FD404A9204601F0C8
:102CF000ABFC0028B4D19DF81600C00708D14FF0F6
:102D00008060ADE74FF00060AAE74FF40060A7E7EE
:102D1000216D2068090401F062F90028A0D1206823
:102D2000002101F0ADF99BE770470000B0B5D0E994
:102D30001942436CA50F012B0D70C4F383654D70D0
:102D4000C4F301658D704FEA1445CD704FEA142528
:102D50000D714C714FEA1254CC80C2F303440C72D3
:102D6000C2F3C0344C72C2F380348C72C2F340346C
:102D7000CC72C2F300340C734FF000044C7330D0AB
:102D8000002B40F0818040F6FC73012503EA8202AB
:102D9000C36E42EA93720A61C26EC2F3C2630B75DC
:102DA000C2F302634B75C2F342538B75C2F3824385
:102DB000CB75C2F3C2330B764FF4007303660B6915
:102DC0000C7E04F0070401330234A34043650C7AFF
:102DD00004F00F0405FA04F48465640A6343C365D0
:102DE00012E0B0F86E3002F03F0243EA02424FF4C4
:102DF00080630A614FF40072026682650A6903EB20
:102E00008222C2654265C26EC2F380334B76C2F342
:102E1000C61302F07F028B76CA76006FC20F0A7764
:102E2000C0F341724A77C0F382628A77C0F383525B
:102E3000CA77C0F3405281F82020002281F8212077
:102E4000C0F3004381F82230C0F3C03381F823304F
:102E5000C0F3803381F82430C0F3403381F825304B
:102E6000C0F3003381F82630C0F3812381F8273086
:102E7000C0F30123C0B2400881F8283081F829004E
:102E8000012081F82A0009E00168054A8A630122CD
:102E9000816B41F08051816380F834201046B0BDD1
:102EA000FF054000B0B500F144053CCD81E83C0091
:102EB000426D0A61826D4A61C26D006EC861002078
:102EC0008A61B0BD10B504460068216D090401F0A7
:102ED000E9F920B1A16B0843A063002010BD206870
:102EE000002101F042F8C0F3432010BD2DE9FC4160
:102EF00004460068256B416B15F0080618BF11F4F5
:102F0000004128D1416BC9053BD4416B002E5ED0F6
:102F100011F480415BD0D4F82480B8F1000F4ED07A
:102F2000276A002601ADB819202E00F0AC80017888
:102F30000191427841EA02210191827841EA0241FD
:102F40000191C07841EA006029460190206801F0B3
:102F500041F80436E7E7D4F82C80B8F1000F2ED002
:102F6000A66A0027F519202F2BD0206801F01FF842
:102F7000010E28700437E970010C000AA97068700E
:102F8000F0E74FF480714CF23A12002E8163C16B6E
:102F900021EA0201C163C16A21F00101C16256D177
:102FA00029060CD5A90608D501F0E8F928B1A16BCE
:102FB0000843A0632046FFF7B7FEA80773D0BDE81B
:102FC000FC81A8F12000C4E90A50BDE8FC81416BF6
:102FD00011F03A0FF3D0416B890703D5A16B41F093
:102FE0000201A163416B090703D5A16B41F0080100
:102FF000A163416B890603D5A16B41F02001A16358
:10300000416BC90603D5A16B41F01001A16340F2E9
:103010003A7140F23A328163C16B9143C16301F06E
:10302000ADF9A16B40EA0100A06396BB2806C6D5A6
:1030300015F0300F44D0E06B2E490165FDF7CCFE52
:103040000028BCD0E06BBDE8FC4101F0DCBA15F013
:10305000220F08D001F092F928B1A16B0843A063B8
:103060002046FFF761FE206840F23A51816301205B
:1030700084F8340000202063A8071CD02046BDE857
:10308000FC4100F0EFBAA8F12001C4E90801BDE855
:10309000FC81012084F83400002020632046BDE834
:1030A000FC41FFF741BE2068C16A21F00801C162FE
:1030B000012084F834002046BDE8FC4100F0D4BA79
:1030C000A8070CD0206C0C490165FDF785FE00288F
:1030D0003FF475AF206CBDE8FC4101F073BA0020ED
:1030E0000121A06384F8341020632046BDE8FC4130
:1030F000FFF7A8BD07460008C545000810B590B108
:10310000044690F8340020B900202077204600F0D3
:10311000EFF8032084F83400204600F00DF8014653
:10312000012011B110BD012010BD0021A163216358
:1031300084F83400002010BDF0B58FB0044600685C
:103140000026762100220023CDE9006602910021AD
:1031500000F014FF012580B9624F3E60206800F046
:103160001EFF3D600496206800F0A4FF40B10125D9
:1031700084F83450A16B0843A06328460FB0F0BD1B
:10318000206800F0BDFF50B10020A064206800F06E
:1031900091FF0028EBD1A06C012802D009E00120AA
:1031A000A0642068002100F01AFF10B14FF0805099
:1031B000DDE74E4D00214FF6FE760020049AC0B99F
:1031C000B24216D82068002100F009FF0028CED1B5
:1031D0002068294600F01EFF0028E7D12068002162
:1031E00000F0C3FE049901310491C0F38071C00F57
:1031F000E4E704984FF6FF72904202D34FF08070DC
:10320000B5E7206801256164ADF80E5000F0A9FE15
:1032100088B1606C032811D12068042100F0A5FE5C
:10322000000D04A9E0642046FFF780FD002846D089
:103230004FF080509CE74FF0806099E7206800F0E5
:10324000E9FF00287FF494AF2068274E0021B047A3
:10325000606720680421B047A06720680821B04754
:10326000E06720680C21B047C4F88000606C032838
:10327000D2D020680DF10E0101F02EF800287FF465
:1032800077AF606C0328C7D0BDF80E1020682165A9
:10329000090400F0D6FF00287FF46AAF20680021FF
:1032A000B047606620680421B047A0662068082106
:1032B000B047E06620680C21B0472067ACE7216D7D
:1032C000206800230A0400F08BFF00287FF450AF31
:1032D00094E86F00A469CDE90056029400F04EFE18
:1032E00000254AE7A08025426B3F0008000010C17E
:1032F0002DE9F04F87B0044602A81421FCF7A8FF7F
:103300002068554FB84240F0A3800022534807F58B
:103310005C4502AEDFF848814FF00C094FF0030A1C
:103320004FF0020B0192416941F400614161416932
:1033300001F40061019101990192016841F00401D9
:103340000160016801F00401019101990192016895
:1033500041F0080101603146006800F0080001906A
:103360000198CDF81890CDF814A0CDF80CB001203C
:1033700004904FF4706002902846C0470020CDE9C9
:1033800005A93146CDE903B04FF48050029028469C
:10339000C0470120CDE905A931464FF0000ACDE92B
:1033A00003B04FF0040B07F56040CDF808B0C047FC
:1033B0002C4D4FF003084FF400104FF400012A4E3B
:1033C0004FF480674FF480524FF00069C5E908ABB5
:1033D000C5E90A81286320204FF4804185E8400632
:1033E000C5E903A7C5E90521E8612846FDF7BEFD4B
:1033F00008B1FDF7B9FAAC6325641C4D4FF4000029
:1034000006F14801C5E908ABE8624FF40010C5F8C1
:10341000288028634020C5E90019C5E9020A4FF455
:1034200080502F6168614FF48040A8612020E861DE
:103430002846FDF79BFD08B1FDF796FA31200021E3
:103440000022AC63E563FEF7FFFB3120FEF7EEFBE5
:1034500007B0BDE8F08F00BF002C014030380240BB
:10346000C1190008403E002058640240A03E0020E0
:103470002DE9F04F87B01F46154689460446FEF7F2
:1034800071FBB9F1000F0ED0804694F8340001288A
:103490000DD100217819A163E26D90420FD9A06B84
:1034A00040F0007006E0A06B40F0006002E0A06B0E
:1034B00040F00050A063012007B0BDE8F08F03206A
:1034C00084F834002068626CC1624FF40071012AF4
:1034D00018BF6D0200F0BAFD48B12168D74A8A636F
:1034E000A16B0843A063012084F83400E4E70020C6
:1034F0004FF0010A022601A905909020CDF818A0EE
:10350000049603904FF0FF300190780202902068FB
:1035100000F015FD022F05D326632946206800F030
:103520002BFE05E0C4F830A02946206800F03EFEDE
:1035300058B12168C14A8A63A16B0843A063012086
:10354000002184F834002163B6E7DDF840A0DDF8FF
:1035500008B040F22A362068426B416B32422FD1CC
:10356000BBF1000F18BF11F4004015D0002509EB86
:103570000506202D0BD0206800F019FD010E3070DB
:103580000435F170010C000AB1707070EFE7B146BC
:10359000ABF1200B40F22A36FEF7E4FAA0EB08006C
:1035A0005045D8D32068A5498163A06B40F0004006
:1035B000A063012084F834000020206303207BE70F
:1035C000022F0FD311F480710CD0616C032909D044
:1035D00000F0D4FE0146206821B1984A8263A06BB6
:1035E0000843ABE7416B09070BD4416B89070ED445
:1035F000416B890620D591498163A06B40F0200082
:103600009CE78E498163A06B40F0080096E78B49E8
:103610008163A06B40F0020090E700F0C8FCC9F89D
:103620000000FEF79FFAA0EB0800504513D2206877
:1036300009F10409ABF1040B416BBBF1000F18BF9A
:1036400011F40011E9D140F23A518163012084F86C
:103650003400002030E7206878498163A06B40F097
:1036600000406BE7FCF77EBFFCF78EBF2DE9F04F03
:1036700087B09B4616460F460446FEF773FA7FB1A5
:10368000804694F8340001280ED100210BEB06008F
:10369000A163E26D90420FD9A06B40F0007006E08C
:1036A000A06B40F0006002E0A06B40F00050A0630F
:1036B000012007B0BDE8F08F032084F834002068B3
:1036C000626CC1624FF40071012A18BF760200F0EB
:1036D000BDFC48B12168594A8A63A16B0843A063C5
:1036E000012084F83400E4E7012001A906900020BD
:1036F000CDE90400902003904FF0FF3001904FEA95
:103700004B200290206800F01AFCBBF1020F06D398
:10371000202031462063206800F04CFE05E0102098
:1037200031462063206800F05FFE58B12168434AAB
:103730008A63A16B0843A0630120002184F8340050
:103740002163B6E7109DDDF808A040F21A396E46F5
:103750002068426B416B12EA090F38D1BAF1000FB1
:1037600018BF11F4804020D04FF0000907EB09008A
:10377000B9F1200F14D001780091427841EA02217A
:103780000091827841EA02410091C07841EA0060EC
:1037900031460090206800F01DFC09F10409E5E7BE
:1037A000AAF1200A074640F21A39FEF7DBF9A0EB2E
:1037B0000800A842CCD3206820498163A06BA06395
:1037C000012084F8340000202063032071E7BBF15E
:1037D000020F0FD311F480710CD0616C032909D052
:1037E00000F0CCFD0146206821B1144A8263A06B31
:1037F0000843A0E7416B09070DD4416B890710D43A
:10380000416BC90613D440F23A518163012084F818
:10381000340000204DE709498163A06B40F00800A7
:1038200089E706498163A06B40F0020083E7034902
:103830008163A06B40F010007DE700BFFF054000F2
:10384000704700001CB504460068416882684B065A
:1038500005D502F04103012B01D1216C05E00B06D7
:1038600007D512F0020304D0616C2046BDE81C406D
:1038700008478B0610D512F4B0730DD012F0400338
:1038800016D094F85130032B07D100210191C16863
:1038900001918068019001981CBD636D43F00403A1
:1038A000636500230193C368019383680193019BBF
:1038B00002F4807312F020020CD0626D42F001021B
:1038C00062650022019282680192026822F0400241
:1038D0000260019A43B1626D42F008026265002203
:1038E000019282680192019A626D002AD4D04268E6
:1038F000890722F0E00242604FF0010284F8512073
:103900001CD0416821F003014160E06C40B10E49D8
:103910000165FDF761FA18B1606D40F04000606527
:10392000A06C0028B8D008490165FDF755FA0028B9
:10393000B2D0606D40F0400060651CBD2046BDE81F
:103940001C40FFF77DBF00BFF9470008F8B5B0B3D2
:1039500000240546846290F8510000284FF00000D2
:1039600005D1284685F8504000F02CF8A86A0221BD
:1039700085F8511095E84E001A430F68324327F03E
:1039800040070F602B691A436B691A43AB6903F454
:1039900000763243EE6932432E6A324310430860A8
:1039A00004206A6A00EA134010434860C86920F4A2
:1039B0000060C86101206C6585F8510000E00124B9
:1039C0002046F8BD2DE9F04786B0044601A8142131
:1039D000FCF73EFC20683D4FB84274D10026D14828
:1039E0004FF005084FF0030901AD4FF0020A0096B1
:1039F000016941F480410161016901F48041009154
:103A000000990096016841F004010160016801F02D
:103A10000401009100990096016841F002010160E3
:103A20002946006800F0020000900098CDF814804C
:103A3000CDE90369CDF808A00C20019007F5E83026
:103A4000FDF7BEFFCDE904984FF4806807F5E63036
:103A50002946CDE902A6CDF80480FDF7B1FF1C4D43
:103A60001C4F142105F11400C5E90076C5E9026672
:103A7000C5F81080FCF7ECFB2846FDF777FA08B193
:103A8000FCF772FFAC63E564134D07F118014020A9
:103A9000C5E9001605F1080181E8410105F11400AE
:103AA0001421FCF7D5FB2846FDF760FA08B1FCF7B6
:103AB0005BFF242000210022AC63A564FEF7C4F85C
:103AC0002420FEF7B3F806B0BDE8F08700380040C8
:103AD000003F002058600240603F0020411E00204F
:103AE000B0EB116F1CBF01207047044AF0235160F6
:103AF00003490B70072190601160704710E000E0EF
:103B000023ED00E010B590F83C300222012B14D0D8
:103B100080F83D200368D1E900215C6824F070043E
:103B200022439C685A6024F080021143002299606D
:103B3000012180F83C2080F83D10104610BD00287F
:103B400044D0F8B5044690F83D000D4628B9002051
:103B500084F83C00204600F03BF8022044F20702C3
:103B600084F83D002068816891438160211D00F048
:103B7000A7FE2668D5E9000CD5E90223B7683843CB
:103B8000B769316AB060A86942EA00204FF6FC428A
:103B900090434FF6FF7227EA02021A431043EA6984
:103BA00040EA02202A6940EA02102A6A40EA02300A
:103BB000B06121F0AA00696940EA0C0040EA0110F6
:103BC0003062012084F83D000020F8BD01207047DC
:103BD00010B586B0044601A81421FCF739FB216812
:103BE0008A48814222D100214E4A00F5823000915C
:103BF000536943F002035361536903F002030093D6
:103C0000009B0091136843F004031360126802F0F4
:103C10000402009203220592CDE9031102210291D0
:103C2000C0210191009901A9FDF7CAFE06B010BD9F
:103C300010B50446042907D009B9002105E0206821
:103C40000021012200F0A6FE04212068012200F0DC
:103C5000A1FE2068016841F001010160002010BD53
:103C600050B310B5044690F8390028B9002084F804
:103C70003800204600F022F8242084F8390020681B
:103C8000C16821F40051C160204600F093FE206815
:103C9000016921F490410161416921F02A014161EA
:103CA000C16841F40051C16000202021E06384F824
:103CB000391084F83A1010BD0120704710B586B055
:103CC000044601A81421FCF7C3FA21681448814274
:103CD00024D10021134A00F5E2300091136943F426
:103CE00080231361136903F480230093009B0091E8
:103CF000136843F008031360126802F00802009290
:103D0000072205920322CDE90312022102914FF40A
:103D100040710191009901A9FDF752FE06B010BD56
:103D20000048004030380240FEE7F0B55200002362
:103D300037240025AA4208BFF0BD04EB1076070F18
:103D4000B0F1204F4FEA001038BF07F130064E5552
:103D500045F0010602358B55ECE700000268B0F132
:103D6000804F0ED0264B98420BD0264B984208D05D
:103D7000254B984205D0254B984202D0244B9842BF
:103D800003D14B6822F070021A43B0F1804F20D06B
:103D90001B4B98421DD01B4B98421AD01A4B98428D
:103DA00017D01C4B984214D01B4B984211D01B4B80
:103DB00098420ED0164B98420BD0144B984208D024
:103DC000174B984205D0174B984202D0164B984299
:103DD00003D1CB6822F440721A4302600B4B8A680D
:103DE000C2620A88826240F480629A4204BF097CFF
:103DF0000163416941F0010141610020704700BF4A
:103E00000004004000080040000C00400004014095
:103E10000000014000180040001C0040002000404D
:103E200000400140004801400044014010B5034CEF
:103E30000348611CFCF799FD207010BD780200203A
:103E4000449C0008BFB5244D19481A4A6FF07F41C1
:103E5000C5E90021A86003F083FE95E81900294612
:103E60002A4642F8103F2B4641F80C0F124843F8FF
:103E7000144F05F1180402901048019000200090A2
:103E8000204604F017FC204604F0B6FC95F84700E5
:103E9000400703D4204604F0B5FC02E0204604F0BD
:103EA000E0FC0749204604B0BDE8B04004F0D6BCB1
:103EB000C0A80101C0A801E695680008F9690008DA
:103EC0002D6C000880B50448183002F045FEBDE8AE
:103ED000804005F029B900BFCC02002080B50F4812
:103EE0000F49002201F020F808B1FCF73DFD0B4816
:103EF0000C4901F0ECF908B1FCF736FD07480A4916
:103F000000F0A5FE08B1FCF72FFD044801F0F3F91D
:103F100018B1BDE88040FCF727BD80BDD43A002031
:103F200018000020BC000020E0010020FEE77047E0
:103F30000148FDF7F3BF00BFC03F00207047B0B598
:103F400091E83C004262836245EA04030A694969D8
:103F50001A431143C26A22F0F7021143C1620020E2
:103F6000B0BD006800F00300704708444069704726
:103F70000148FEF7BBBF00BFC0430020B0B51143EE
:103F8000049A446847F6FF6519431143059AAC4308
:103F90001143069A1143214341600020B0BD80B512
:103FA000032101600220FDF76DF8002080BDD0F8EC
:103FB0008000704770B591E83C0040F6FF762343DF
:103FC00082602B43C2680969B24319431143C1603F
:103FD000002070BD0968C0F880100020704710B53F
:103FE00086B004464FF48060059000200490402085
:103FF00003903720CDE9011001A92046FFF7DAFF31
:104000002046372141F2883206B0BDE8104000F06A
:1040100005BA000010B586B004464FF480600590E4
:104020000020049040200390292002900648084375
:1040300001A901902046FFF7BDFF204606B0BDE86C
:10404000104000F09DBA00BF0000108010B586B08F
:1040500004464FF4806005900020049040200390B7
:104060001020CDE9011001A92046FFF7A3FF20464B
:10407000102141F2883206B0BDE8104000F0CEB900
:1040800010B586B004464FF480600590002004907F
:10409000402003900620CDE9011001A92046FFF73A
:1040A00089FF2046062141F2883206B0BDE8104063
:1040B00000F0B4B910B586B00446002001A9CDE9DE
:1040C0000300CDE901004FF4806005902046FFF722
:1040D00071FFA9484FF4FA510068B0FBF1F041F2CA
:1040E00088314843C043013006D2616B0906FAD5D6
:1040F000C520A063002001E04FF0004006B010BDD5
:1041000010B586B004464FF4806001A905900020E8
:10411000049040200390082002904FF4D570019045
:104120002046FFF747FF94484FF4FA510068B0FB70
:10413000F1F041F288314843C043013013D2616B42
:1041400011F0450FF9D011F40061F6D1606B400712
:104150000CD4606BC0070BD1606B400644BF40209D
:10416000A063002006E04FF0004003E0042000E0E0
:104170000120A06306B010BD10B586B004464FF410
:104180008060059000200490402003901220CDE92B
:10419000011001A92046FFF70DFF2046122141F230
:1041A000883206B0BDE8104000F038B910B586B0CE
:1041B00004464FF480600590002004904020039056
:1041C0001120CDE9011001A92046FFF7F3FE20469A
:1041D000112141F2883206B0BDE8104000F01EB94E
:1041E00010B586B004464FF4806001A90590002008
:1041F0000490402003900720CDE901202046FFF7DE
:10420000D9FE2046072141F2883206B0BDE81040B1
:1042100000F004B910B586B004464FF48060C021A8
:1042200005900020039102210490CDE9010101A92C
:104230002046FFF7BFFE204606B0BDE8104000F064
:1042400079B910B586B004464FF48060059000201F
:104250000490C02003900920CDE9011001A9204657
:10426000FFF7A8FE204606B0BDE8104000F062B996
:1042700010B586B004464FF48060402105900020C0
:10428000039133210490CDE9010101A92046FFF7F4
:1042900091FE2046332141F2883206B0BDE810403D
:1042A00000F0BCB810B586B004464FF480600590AD
:1042B00000200490402003900D20CDE9011001A9B9
:1042C0002046FFF777FE20460D2141F2883206B0E6
:1042D000BDE8104000F0A2B8B0B586B00C46054667
:1042E0004FF4806040210590002003910321049049
:1042F000CDE9010101A92846FFF75CFEB0484FF463
:10430000FA510068B0FBF1F041F288314843C043F4
:1043100001301FD2696B11F0450FF9D011F4006123
:10432000F6D1686B400718D4686BC00717D12869AD
:10433000C0B2032817D1C520A863686910F4604F84
:1043400013D0410415D400044FF4805058BF4FF4EB
:10435000803006E04FF0004003E0042000E0012040
:10436000A86306B0B0BD0120FBE7000C2080002050
:10437000F7E74FF40050F4E7B800002010B586B01E
:1043800004464FF4806040210590002003910C21E9
:104390000490CDE9010101A92046FFF70BFE044A74
:1043A00020460C2106B0BDE8104000F037B800BF31
:1043B00000E1F50510B586B004464FF48060059025
:1043C00000200490402003901920CDE9011001A99C
:1043D0002046FFF7EFFD2046192141F2883206B052
:1043E000BDE8104000F01AB810B586B004464FF48E
:1043F0008060059000200490402003901820CDE9B3
:10440000011001A92046FFF7D5FD2046182141F2F1
:10441000883206B0BDE81040AFF3008010B5034607
:1044200067484FF4FA540068B0FBF4F05043013091
:1044300001386FD05A6B12F0450FF9D012F40062B8
:10444000F6D1586B400768D4586BC00767D1C520B8
:1044500098631869C0B288421CBF012010BD58691A
:10446000334908425ED000285ED4410044BF40205A
:1044700010BD810044BF802010BDC10044BF4FF477
:10448000807010BD010144BF4FF4007010BD4101A8
:1044900044BF4FF4806010BDC10144BF4FF40060C1
:1044A00010BD010244BF4FF4805010BD410244BF13
:1044B0004FF4005010BD810244BF4FF4804010BD46
:1044C000C10244BF4FF4004010BD410344BF4FF44C
:1044D000003010BD810344BF4FF4802010BDC103E4
:1044E00044BF4FF4002010BD010444BF4FF48010BE
:1044F00010BD410444BF4FF4001010BD810444BFFF
:104500004FF4800010BD00074FF4000058BF4FF477
:10451000803010BD4FF0004010BD042000E00120AD
:10452000986310BD002010BD4FF0007010BD00BF9B
:1045300008E0FFFD22494FF4FA520968B1FBF2F19D
:1045400041F288325143C943013110D2426B12F01B
:10455000450FF9D012F40062F6D1416B490709D436
:10456000416BC90708D1C5218163002106E04FF0E6
:10457000004103E0042100E0012181630846704707
:104580000F494FF4FA520968B1FBF2F141F2883257
:104590005143C94301310ED2426B12F0450FF9D09D
:1045A00012F40062F6D1416B042211F0040108BF3D
:1045B000C522826301E04FF000410846704700BF0A
:1045C000B800002010B5846B40F23A512068816336
:1045D0002046FEF777FC0121053884F834100021CD
:1045E0000128216305D82068FFF7C8FEA16B0843A6
:1045F000A063A06B00282046BDE8104018BFFEF75E
:1046000093BBFEF71FBB10B5846B40F23A51206894
:1046100081632046FEF756FC0121053884F83410EA
:1046200000210128216305D82068FFF7A7FEA16BB0
:104630000843A063A06B00282046BDE8104018BFC7
:10464000FEF772BBFEF7FEBA2DE9F04389B088464B
:104650000546FDF787FA064600200821CDE900004F
:104660002868FFF7F3FC00284DD1296D286809045C
:10467000FFF7B5FC002846D1012003A908900020CF
:1046800007900220069030200590082004904FF0FB
:10469000FF3003902868FFF752FC2868FFF7E8FD19
:1046A00088BB002740F22A44E94629684A6B486BD8
:1046B00022420FD1800205D50846FFF778FC49F861
:1046C00027000137FDF74EFA801B01304FF0004004
:1046D000EBD118E0000710D4486B80070FD4486B6B
:1046E00080060ED440F23A508863DDE9000109BA31
:1046F00000BAC8E90010002005E0082002E002200E
:1047000000E02020886309B0BDE8F08310B52A4C92
:1047100001202070FBF7F4FE18B9207800F0FE00AD
:104720002070207810BD00BF10B588B0084622491F
:104730000978C9070BD103280BD81446DFE800F02D
:1047400017020B116846FBF7CFFE06980DE0032019
:104750000DE004200BE06846FBF7C6FE07982080BA
:1047600004E06846FBF7C0FE07982060002008B010
:1047700010BD00BF10B51C461A4B08461146224614
:10478000FBF7E2FE28B9184CFBF7B2FE18B1013472
:10479000FAD3012010BD002010BD00BF10B5064C9B
:1047A00001202070FBF7A4FE18B9207800F0FE006D
:1047B0002070207810BD00BFB700002010B51C4647
:1047C000084B084611462246FBF7CEFE28B9064C98
:1047D000FBF78EFE18B10134FAD3012010BD002082
:1047E00010BD00BF00E1F5055F79FEFF0148FFF74E
:1047F00029B800BF44440020806B0021C187C186D6
:10480000FFF71EB87047FDF7B1B970B592B006ACAE
:104810001421201DFBF71CFD052002250026119008
:10482000C32010950F900D200E901020CDE90C564E
:1048300006950A90012009902046FEF7A1F84FF452
:104840008050032105904FF4A05004900F20CDE933
:104850000256019001A8FDF7B5FF12B070BD00002F
:104860000B480C4B016841F001010160002181609F
:1048700002681A400260084A4260026822F48022FC
:104880000260C16005484FF000610160704700BFE1
:1048900000380240FFFFF6FE1030002408ED00E073
:1048A00010B5314C10210022206820F0010020605A
:1048B00004F50530FDF751F96FF00100206110BDDE
:1048C000B0B50268B0F1804F0ED0274B98420BD0A4
:1048D000264B984208D0264B984205D0254B98424B
:1048E00002D0254B984203D14B6822F070021A4344
:1048F000B0F1804F20D01C4B98421DD01B4B9842EA
:104900001AD01B4B984217D01C4B984214D01C4B0A
:10491000984211D01B4B98420ED0174B98420BD0A7
:10492000144B984208D0184B984205D0174B984228
:1049300002D0174B984203D1CB6822F440721A433D
:104940004D6922F080020B688C682A430260C462C1
:104950008362084B40F480629A4204BF0969016394
:1049600001214161B0BD00BF0004004000080040CB
:10497000000C00400004014000000140001800400D
:10498000001C004000200040004001400048014061
:104990000044014010B501F01F010123046A8B405F
:1049A00002FA01F124EA03030362026A114301627D
:1049B00010BD0000B0B50446006804F108030ECB3A
:1049C000056925F4405519432A4349F20C650261F3
:1049D000C26863691943E369AA431943B3F5004FF9
:1049E00041EA0201C1604169A26921F4407141EAD2
:1049F00002014161234940F4806004D1884207D11B
:104A0000FDF780FF06E088421DD1FDF77BFF1CE02B
:104A1000FDF76EFF19216FF0630348436168490099
:104A2000B0FBF1F06421B0FBF1F202FB0300322392
:104A300003EBC000B0FBF1F14FF4F87000EA410065
:104A400001F0070117E0FDF753FF19216FF0630331
:104A5000484361688900B0FBF1F06421B0FBF1F2DA
:104A600002FB0300322303EB0010B0FBF1F101F075
:104A7000F00001F00F0100EB02100843216888608C
:104A8000B0BD00BF0014014070B5D0F8B822B2B17B
:104A900001EB810300EB830353F81C4F5CB1D0F8AA
:104AA000C052C1EBC10605EB86056D6CB4FBF5F693
:104AB00006FB15442CB10024C2F8144207E002247E
:104AC00005E0002400221C60002300F0ECFB2046DF
:104AD00070BDB0B5D0F8B852044600F0F7FAC5F88A
:104AE0000C02D4F8B80248B1D4F8BC22D5F80402BC
:104AF00005F50371D26890470020B0BD0220B0BD1B
:104B000070B50F4E81210446B04700252046012193
:104B1000E562B04720468221C4F86C51B047D4F812
:104B2000B802256448B1D4F8BC0240688047D4F884
:104B3000B80204F0D9FFC4F8B852002070BD00BF1D
:104B4000654F000810B5D0F8BC1269B1D0F8B84272
:104B500094F80002FF2807D08B6894F801222146C0
:104B60009847FF2084F80002002010BD0A21018030
:104B7000004870477C0100204321018000487047B5
:104B8000F4000020432101800048704738010020D4
:104B90004321018000487047880100202DE9F04141
:104BA0000546007C40271F4C812102224FF040081F
:104BB000002808BF4FF4007728463B46A04701264F
:104BC0002846012102223B46EE62A0472846822168
:104BD00003220823C5F86C61A0474FF407702E64C8
:104BE00004F0AAFF4FF407710746C5F8B802FBF7B7
:104BF0002FFBA7B1D5F8BC02006880470026012131
:104C0000C7F81462C7F81862287C002808BF4FF460
:104C10000078D7F804222846434600F0ABFA304625
:104C2000BDE8F0815D51000880B5D0F8B81261B1DF
:104C3000027C4023002A08BF4FF40073D1F80422FD
:104C4000012100F097FA002080BD022080BD19B13B
:104C5000C0F8BC120020704702207047D0F8B8029C
:104C6000C0F8041200207047D0F8B802C0F8102233
:104C7000C0F80812002070477CB50446D0F8B8622E
:104C800000200D468DF80700ADF80400087810F0FC
:104C900060010FD020293FD1EA88CAB1000620D494
:104CA0006878314686F8012286F80002204600F036
:104CB00074F82FE068780B281DD00A2820D058BB44
:104CC00094F89C02032827D101A9204602221FE064
:104CD000D4F8BC126878002200248B6829469847D3
:104CE0001FE0D4F8BC1268788B6831469847EA8890
:104CF000204631460CE094F89C0203280AD00BE0D1
:104D000094F89C02032807D10DF1070120460122E7
:104D100000F05BF8002404E02046294600F032F859
:104D2000022420467CBD80B5D0F8B83283B1D3F8D8
:104D3000142201216AB9C3F81412D3F81012D3F85F
:104D4000082201638BB2812100F0ADFA002100E05E
:104D50000221084680BD80B5D0F8B4225268904741
:104D6000002080BD80B513460A46002100F002FAFB
:104D7000002080BD80B513460A46002100F093FA5A
:104D8000002080BD10B58021044600F071FA204655
:104D90000021BDE8104000F06BBA80B513460A460A
:104DA0000321C0E95733C0F89412002100F0E2F962
:104DB000002080BD80B5052100220023C0F8941298
:104DC000002100F0D7F9002080BD80B513460A46C7
:104DD0000221C0E90733C0F89412002100F063FA01
:104DE000002080BD80B5042100220023C0F8941269
:104DF000002100F058FA002080BD000010B5264CBC
:104E00000A4603A0214600F063F8204610BD00BF0B
:104E100043444320436F6E66696700001220088098
:104E200000487047CC01002010B51B4C0A4603A077
:104E3000214600F04DF8204610BD00BF43444320FA
:104E4000496E746572666163650000000420088025
:104E500000487047F001002010B50F4C0A4603A02F
:104E6000214600F035F8204610BD00BF537472791A
:104E7000782E496E6300000010B5074C0A4603A067
:104E8000214600F025F8204610BD00BF5765624D51
:104E90004D535F4D61696E00B0340020B0B51A20EB
:104EA0000880094908688A6880180BD0074D4C684B
:104EB0000822A91CFEF739FF05F112012046042241
:104EC000FEF733FF0148B0BD107AFF1FF401002048
:104ED000B0B5D8B100230446257815B101340133AB
:104EE000FAE7DCB2022303EB440414800C700322C3
:104EF00001240A5502784AB1DCB29D1C01300A55E2
:104F000043F001022B46D4B20022F2E7B0BD00000C
:104F1000032884BF022070470249C00021FA00F034
:104F2000C0B270470002010288B180B5D0F8B43237
:104F300013B10023C0F8B43209B1C0F8B012012196
:104F4000027080F89C1200F0C5F8002080BD02209D
:104F5000704780B5D0F8C002FCF706FFBDE880407E
:104F6000FFF7D6BF80B5D0F8C002FCF7D8FEBDE889
:104F70008040FFF7CDBFB0B5044669B1D4F8B402A4
:104F800042693AB194F89C02032803D12046904725
:104F90000020B0BD0220B0BDD4F8940280B1042836
:104FA0000ED002283DD1D4E9081081420DD9081A4B
:104FB000114683B2206220461A46FFF7DBFE18E056
:104FC0002046802100F054F92BE0E169814217D39B
:104FD000B1FBF0F202FB101090B9D4F898028142B4
:104FE0000ED22046002100220025FFF7C3FEC4F8A0
:104FF0009852204600210022002300F0BBF810E068
:10500000D4F8B402C16829B194F89C02032801D1F4
:10501000204688472046802100F02AF92046FFF7E5
:10502000C9FE94F8A0120020012904BF84F8A00250
:10503000B0BDB0BDB0B5044661B1D4F8B402826968
:1050400032B194F89C02032802D1204690472DE00B
:1050500002252CE0D4F894020025052812D003285C
:1050600025D1D4E95810814213D9091AC4F8601126
:10507000814238BF084683B2114620461A46FFF7E0
:1050800071FE13E020460021C4F8945200F0F0F8BD
:105090000DE0D4F8B402016929B194F89C02032808
:1050A00001D1204688472046FFF79CFE0025284670
:1050B000B0BD0020704780B5D0F8B422012180F83F
:1050C0009C12017952689047002080BDD0F8C00240
:1050D000FCF777BE10B5017841BB154901220223C8
:1050E000C0F8C012C1F8FC030020C1E90B20C1E9DF
:1050F00006320862C1E9033004204FF0A042C1E942
:1051000000200846FDF70FFA08B1FBF72DFC084C0C
:1051100080212046FCF7C4FD204600214022FCF7F8
:10512000C3FD204601218022FCF7BEFD002010BDFA
:10513000C03F002001F07F02D0F8C0020906C2EB98
:10514000C20200EB820000F13E0258BF00F5FF7280
:1051500010787047002070470020704710B5144643
:10516000D0F8C0021A462346FCF734FEBDE81040D2
:10517000FFF7CEBE80B5D0F8C002FCF759FEBDE8FF
:105180008040FFF7C5BEF8B5002100224023044649
:1051900000254026FFF7E2FF01272046802100225C
:1051A0004023C4F86461C4F85871FFF7D7FFD4F8FE
:1051B000B80284F89C726662A761C4F89452C4F87D
:1051C000A452656028B1D4F8B40200214268204698
:1051D00090470020F8BD90F89C12042904BF90F875
:1051E0009D1280F89C120020704780B590F89C12A8
:1051F000032904D1D0F8B412C96901B1884700204D
:1052000080BD01740020704780B5D0F8C002FDF762
:1052100090FABDE88040FFF77BBEB0B500F52A7577
:105220000446284600F048F8B4F8AE120120C4E95C
:10523000A50194F8A80200F01F01022907D0012956
:105240000AD071B92046294600F05AF80EE02046EF
:10525000294600F08DF909E02046294600F027FA9A
:1052600004E000F08001204600F002F80020B0BD0C
:1052700080B5D0F8C002FCF7FCFDBDE88040FFF728
:1052800047BE80B5D0F8C002FDF76EFABDE8804099
:10529000FFF73EBE90F89C1280F89D12042180F822
:1052A0009C120020704780B5D0F8C002FCF718FEB1
:1052B000BDE88040FFF72CBE0A7802704A78427041
:1052C0004A8842808A888280C988C180704719B123
:1052D000C0F8B412002070470220704780B5D0F8A3
:1052E000B42232B112689047002818BF0120400054
:1052F00080BD022080BD80B5FFF7C3FF002080BDC8
:10530000BCB5044608780D4610F060000BD040286C
:1053100002D0202840F02481D4F8B40229468268C3
:10532000204690471FE16878092800F21981DFE8DC
:1053300010F00A00200017012C0017015700790017
:1053400017013400420094F89C020138022800F250
:105350000781E888022840F00381D4F8A4020322E0
:105360002146002808BF012241F80C2F20460222C6
:1053700074E094F89C020138022800F2F1806888F9
:10538000012840F0F080002004E06888012840F007
:10539000EA800120C4F8A402DEE0E888012840F099
:1053A000DF8094F89C02411E022951D20020214640
:1053B00041F8080F50E068886C4DC1B2287002298E
:1053C00080F0CE8094F89C0203284AD0022840F056
:1053D0006680002900F0C080032084F89C024BE026
:1053E000A888002840F0BC80E888002840F0B880F9
:1053F00068887F2800F2B48094F89C12032900F09A
:10540000AF80C5B284F89E0220462946FFF7FCFE15
:105410002046FFF7E7FC002D0CBF0120022084F896
:105420009C02A0E000204FF0FF31ADF80600688834
:1054300001EB1021062900F29380DFE801F0043827
:105440002491913E4800D4F8B012207C0A6870E0A4
:10545000032840F08580211D20460122FFF7B5FC7E
:1054600081E000293FD06068884200F07580C1B2B9
:105470002046FFF770FC297820466160FFF72EFF79
:10548000022869D16CE0C0B2052869D8DFE800F0D5
:10549000033C4044484CD4F8B002426847E0204600
:1054A000FFF770FC29782046FFF755FC5BE0217C74
:1054B000D4F8B40201B3C16A1FE0207C00284FD1A8
:1054C000D4F8B402416B0DF10600884734E0207C2B
:1054D000002845D1D4F8B402016B0DF106008847CD
:1054E000014607200EE000206060022084F89C0244
:1054F0002046FFF730FC2FE0816A0DF10600884757
:1055000001460220487018E0D4F8B00282680EE02C
:10551000D4F8B002C2680AE0D4F8B002026906E02A
:10552000D4F8B002426902E0D4F8B0028269BAB19C
:10553000207C0DF1060190470146BDF8060048B1F8
:10554000EA883AB1904238BF02462046ADF80620BC
:10555000FFF73BFCE88830B92046FFF743FC02E048
:105560002046FFF70FFC0020BCBD00BFAC3400207C
:10557000B0B5044608780A4610F060000AD040280A
:1055800001D0202875D1D4F8B40211468368204692
:10559000984771E0202807D1D4F8B40211468368F7
:1055A0002046BDE8B040184750781179A8B10128CD
:1055B0002ED003285DD194F89C0203282CD150886A
:1055C000002863D141F0800080285FD0D088002877
:1055D0005CD12046FFF74CFE58E094F89C0203286B
:1055E00028D0022845D141F08000802841D101F027
:1055F0007F00090600EB800004EB800000F114023C
:1056000058BF00F5AA7200201146106020464AE0FB
:1056100094F89C02032831D002282AD141F080005E
:10562000802826D02046FFF723FE20468021FFF762
:105630001FFE21E001F00F0211F0800002EB820258
:1056400004EB820214BF9269D2F858218AB101F0AA
:105650007F02002841F0800002EB820204EB82020C
:1056600002F5AA7518BF02F11405802812D1002096
:1056700016E02046FFF786FB0020B0BD50880028CA
:10568000FAD1480602D02046FFF763FC2046FFF718
:10569000A9FBF1E72046FFF74DFD0028E7D00120E8
:1056A0002860204629460222FFF78FFBE4E7B0B5C9
:1056B000044608780D4610F0600018BF402815D148
:1056C00094F89C020138022812D8A88810F0FE0F26
:1056D0000ED1D4F8B402294682682046904750B9CA
:1056E000E88840B92046FFF77DFB04E02028E7D09A
:1056F0002046FFF747FB0020B0BD0000B0B50A7898
:105700004C78012502F00F03012C05FA03F318D1A0
:10571000D0F81C482343C0F81C38530100F5106032
:10572000C458240424D41C588D68C9786FF3DF252D
:1057300045EA8252224342EA81410E4A11431950FE
:1057400016E0D0F81C48520144EA0343C0F81C3864
:1057500000F5306083581B040AD413588C68C9784C
:105760006FF3DF24234343EA8141024B1943115075
:105770000020B0BD00800010D0F8001940F2FF7288
:105780009143C0F80019D0F8081801F00601042967
:1057900005D1D0F8001941F00301C0F80019D0F884
:1057A000041841F48071C0F804180020704700000C
:1057B000B0B504460698049D012817D1A16B164A7E
:1057C0000D9821F480310128A163E16801EA02010A
:1057D000E160E16821F44011E16003D1E06840F448
:1057E0008010E060204600F019F80AE0E06840F020
:1057F0004000E060204600F011F8A16B41F48031D8
:10580000A163012D07D1A16841F00601A160A16843
:1058100041F02001A160B0BDBFFFBDFF0A490A46AB
:10582000013A0FD00369B3F1FF3FF9DC026942F09E
:1058300001020261013905D00269D20704BF0020CC
:105840007047F7E703207047410D0300B0B50A78B1
:105850004D78012102F00F04012D01FA04F31649DD
:105860000FD1D0F83C489C43C0F83C48D0F81C48C5
:1058700024EA0303C0F81C3800EB421000F5106066
:1058800014E0D0F83C5801F1707125EA0343C0F8E8
:105890003C384FF48033A340D0F81C4824EA03037B
:1058A000C0F81C3800EB421000F53060026811406F
:1058B00001600020B0BD00BF007833EC80B5D0F8A7
:1058C000041821F00201C0F804180320FBF7DAFBEA
:1058D000002080BD80B5D0F8041841F00201C0F866
:1058E00004180320FBF7CEFB002080BD2DE9F84F04
:1058F0008346DDF84490DDE90C08DDF828A00D466C
:1059000041210022502903D04BF821200131F9E731
:10591000DBF83810B9F1000F08D021F40011CBF8F2
:105920003810DBF8381041F400210DE041F400118B
:10593000CBF83810DBF8381021F40021CBF8381000
:10594000DBF8381021F48021CBF838100021012831
:10595000CBF8001EDBF80018CBF8001806D1DBF8F6
:105960000008002B18BF40F0010003E0DBF800083E
:1059700040F00300CBF800085846102100F028FA48
:105980000646584600F016FA002130430BF5106227
:105990004FF67F330026CBF81018CBF81418CBF84D
:1059A0001C18B5420FD04FF09047002E06F10106AB
:1059B00008BF4FF00067146807EAE47414601161CF
:1059C00093602032EDE70BF5306100224FF67F3314
:1059D0000026002818BF0120B5420FD04FF0904498
:1059E000002E06F1010608BF4FF000640F6804EABC
:1059F000E7740C600A618B602031EDE7DBF810186A
:105A0000BAF1010F21F48071CBF8101810D11E49A2
:105A10001E4ACBF83018DBF830181143CBF8301899
:105A200000214BF8181F6FF080414BF8041C0FE069
:105A30000021BAF1000F4BF8181F6FF080414BF8AE
:105A4000041C05D1DBF8001041F01001CBF8001068
:105A5000DBF800100E4AB8F1000F41EA0201CBF862
:105A6000001005D0DBF8001041F00801CBF8001061
:105A7000B9F1010F05D1DBF80010064A1143CBF84C
:105A80000010BDE8F88F00BF000180000300010096
:105A900000383C8004000040816821F001018160F1
:105AA00000207047F0B54B7891F800E0012B1DD134
:105AB00000EB4E13334F344CD3F810694D6903F5A6
:105AC0001063C5B326401E611E693E401E618E688C
:105AD000B54284BF4E6135461E6946F400261E61FC
