:020000040800F2
:100000003080002099010008A7550008A15300087E
:10001000A55500089306000853780008000000006A
:100020000000000000000000000000000B5F00085E
:100030005B0C000800000000B5550008655F000873
:10004000B3010008B3010008B3010008B3010008C0
:10005000B3010008B3010008B3010008B3010008B0
:10006000B3010008B3010008B3010008B3010008A0
:10007000B3010008B3010008B50B0008C10B00086C
:10008000CD0B0008D90B00085D050008AD0600087F
:10009000950600089D060008A5060008B3010008A3
:1000A000B3010008B3010008B3010008B301000860
:1000B000B3010008FD5F0008B3010008B3010008A8
:1000C000B3010008B3010008B3010008B301000840
:1000D000655E0008B3010008E9620008B30100088A
:1000E000A50D0008B3010008B3010008B301000822
:1000F000B3010008B3010008B3010008B301000810
:10010000B3010008E9550008B3010008B301000875
:10011000B3010008B3010008B3010008B3010008EF
:10012000E50B0008B3010008B3010008F10B00085B
:10013000B3010008A90C0008990D0008B3010008DC
:10014000B3010008B3010008B3010008A955000875
:10015000B3010008FD0B0008B3010008B30100085B
:10016000B3010008B3010008B3010008B30100089F
:10017000B3010008B3010008B3010008000000004B
:10018000B3010008DFF80CD000F00AF9004800477E
:10019000E993000830800020064880470648004761
:1001A000FEE7FEE7FEE7FEE7FEE7FEE7FEE7FEE727
:1001B000FEE7FEE7BD5F0008850100082DE9F05F5E
:1001C0000546002092469B468846064681464024C6
:1001D0001BE0284641464746224600F099F8534620
:1001E0005A46C01A914110D311461846224600F0D3
:1001F00080F82D1A67EB01084F46224601200021A6
:1002000000F077F817EB00094E41201EA4F101041D
:10021000DFDC484631462A464346BDE8F09F40EAC7
:1002200001039B0703D009E008C9121F08C0042A74
:10023000FAD203E011F8013B00F8013B521EF9D25B
:100240007047D2B201E000F8012B491EFBD2704783
:100250000022F6E710B513460A4604461946FFF792
:10026000F0FF204610BD421C10F8011B0029FBD1F5
:10027000801A704730B504460020034600E05B1C3E
:10028000934203D2E05CCD5C401BF8D030BD30B56A
:1002900005460020034600E05B1C934205D2EC5C5F
:1002A000C85C201A01D1002CF6D130BD70B50646CD
:1002B0000AF04EFF046805460A220021304600F08D
:1002C00037F82C6070BD30B50B4601460020202267
:1002D000012409E021FA02F59D4205D303FA02F553
:1002E000491B04FA02F52844151EA2F10102F1DCB3
:1002F00030BD202A04DB203A00FA02F100207047CA
:100300009140C2F1200320FA03F319439040704753
:10031000202A04DB203A21FA02F00021704721FA5A
:1003200002F3D040C2F120029140084319467047C1
:100330002DE9F04791460F4680460446002614F802
:10034000015B2DB100F03EF80068405DC007F6D1BA
:100350002B2D02D02D2D18D0641E4A46394620463A
:1003600000F034F827B13968A14201D1C7F8008004
:1003700071054FF002040BD54042002803DD0AF05E
:10038000E7FE0460A007BDE8F08746F48066E4E776
:100390000028F8DA0AF0DCFE04606FF00040F2E7B3
:1003A000064C074D06E0E06840F0010394E80700C2
:1003B00098471034AC42F6D3FFF7E8FEB4BA000811
:1003C000D4BA00080048704718B600082DE9F05F5D
:1003D00082460078002715468B460AF10104B9468B
:1003E000302801D09DB113E014F8010B01277828C3
:1003F00003D0582801D045B10AE00DB1102D07D126
:100400000027102514F8010B02E0082500E00A255A
:100410000026B0460EE005FB080005FB06F10127AB
:1004200001EB10461FFA80F8B6F5803F00D3B946BD
:1004300014F8010B294600F018F80028EBDABBF19C
:10044000000F05D00FB1641E00E05446CBF8004009
:10045000B9F1000F06D00AF07BFE02210160C81E30
:10046000BDE8F09F48EA0640FAE73A2800D2303863
:1004700020F02002412A01D3A2F13700884201D3A3
:100480004FF0FF30704770B58C1810F8015B15F015
:10049000070301D110F8013B2A1106D110F8012BF6
:1004A00003E010F8016B01F8016B5B1EF9D12B071B
:1004B00005D40023521E0DD401F8013BFAE710F8D1
:1004C000013BCB1A921C03E013F8015B01F8015BBE
:1004D000521EF9D5A142D8D3002070BD0146806BD1
:1004E000036C026C13F0500F07D0D20648BF00F027
:1004F00017BE806BC26C0846104742F4007101645D
:1005000001688A6812F0405F01D000F007BE82697E
:10051000002AFAD1CA6A12F4700F02D08A68520512
:10052000F3D44A6822F020024A60016C21F4807101
:100530000164016CC904E8D4016C41F0010101645B
:1005400000F0ECBD806B40210164416C41F004017E
:10055000416400F0E5BD806B00F0E1BD174800F09C
:10056000E0BD00BF70B5144D14480422042605F107
:10057000280100F06DFF124C3EB1204600214FF4DF
:100580007A7201F03FFD013EF6E70C4800F0DEFF15
:10059000E8790138042805D3D5E90A2309480AA1D6
:1005A0000AF0C2FD074C2046FFF75DFE01462046DB
:1005B000BDE8704000F0BCBAA8020020843F0020D3
:1005C000CC3F0020283C00202325303464253034E3
:1005D000640D0A0080B50448042102F0F9FBB0FA6A
:1005E00080F0400980BD00BF001802407047000045
:1005F0000146264803F0BABD80B5244803F0C6FD85
:10060000043818BF012080BD80B500F013F8012820
:100610001CBF012080BD1D4803F0D4FE00B180BD89
:100620001A484FF4006103F073FC002818BF012042
:1006300080BD00BFE0B501208DF80700FFF7CAFFBD
:1006400010B900208DF807009DF807008CBD000050
:100650001CB514460A4601460C480093234604F094
:100660006BF8002818BF01201CBD00BF70470000B8
:100670001CB514460A46014604480093234604F07C
:1006800059F9002818BF01201CBD00BF6C4600208E
:100690007047FEE7074801F0E5B800BF054801F0E4
:1006A000E1B800BF034801F0DDB800BF014801F028
:1006B000D9B800BFDC030020B0B5094D0446284678
:1006C00001F0BBF8074B43F8140F28461A4603F114
:1006D000240102F8044FBDE8B04000F075BF00BF30
:1006E000DC030020A8020020002070470020704793
:1006F00010B5CD4C05490022204605F0EBFE04491B
:10070000204605F0E1FE002010BD00BF0C3A00209D
:10071000E03800202DE9FE4FDFF80C6382460D46DD
:100720005146304605F0D0FE304605F0B3FEDFF806
:10073000FC72387848B3DFF8F872DFF8F892DFF827
:10074000F8B200264FF001082868B4B2A04240F287
:1007500068811AF80400396808700121386800F0CF
:10076000E7F93868421C3A601AF804100D2901D0E4
:100770000A2905D189F80080584638600136E3E738
:100780005A45FBD00829F8D0F8E79AF80010A1F1F3
:100790003200462800F29080DFE810F03F0141016E
:1007A0003601360136013601360136013601360191
:1007B0003601360136013601360147003601580050
:1007C0005A0036015C00360136015400360136010C
:1007D0007600780036013601560036014700840065
:1007E00086003601560054008C0036013601360171
:1007F0003601360136013601360147003601580010
:100800005A0036015C0036013601540036013601CB
:100810007600780036013601560036014700840024
:1008200086003601560054008C00884800210122C1
:10083000016082480270864801608648016086A097
:100840001621E7E00220EBE00120E9E00520E7E0E7
:100850000420E5E0864D874E2021012205F5A054B5
:100860002046B047204610210122B04705F54060E0
:100870004FF400710022B0477F486FF00101016121
:10088000016841F001010BE00320C9E07B4C2046E8
:10089000FFF7E9FC81B2204600F04AF96448664956
:1008A0000160BEE00720BBE064480021017064A045
:1008B0000A21AFE00620B3E0232940F0A58070A113
:1008C00050460422FFF7E3FC694D18B92846012180
:1008D00002F083FA6CA150460622FFF7D8FCC0B99B
:1008E00005F5A056634C202101223046A047304632
:1008F00010210122A04705F540604FF4007100224D
:10090000A0475D486FF001010161016841F00101FC
:1009100001605FA150460522FFF7B9FC28B95EA02F
:10092000102100F005F90820387060A1504605221A
:10093000FFF7ADFC28B95FA0102100F0F9F80920FD
:10094000387061A150460722FFF7A1FC28B960A0CA
:10095000172100F0EDF80220387063A150460622FE
:10096000FFF795FC28B96248192100F0E1F807204B
:10097000387060A150460722FFF789FC68B95F48CC
:100980001D2100F0D5F89AF807008DF80B000DF145
:100990000B00FFF78BFC5A4908705AA150460622FB
:1009A000FFF775FCA8B959485B495C4E0388584865
:1009B0000988028857480088CDE900015849304627
:1009C0000AF0B2FB3046FFF74EFC81B2304600F031
:1009D000AFF854A150460722FFF759FC08BB4FF46B
:1009E00080300021A8614FF40000A86147480180D1
:1009F0004748018047480180474801804B480180B3
:100A00004FF08040A8610CE01C4C2046FFF72BFC07
:100A100081B2204600F08CF803E0082000E00920B5
:100A200038700020BDE8FE8FC03C0020A9020020E5
:100A3000AC3C0020AA020020E8340020A8020020DC
:100A400053746F70706564210D0A00002404014026
:100A500044040020B00200204175746F547269672D
:100A60006765722053746172746564210D0A000019
:100A700000040240E72D000800040040340000207C
:100A8000236675636B0000002373686F6F7400004A
:100A900023555342320000005553422053656C6584
:100AA000637420322E300D0A0D0A00002355534284
:100AB000330000005553422053656C656374203346
:100AC0002E300D0A0D0A00002364706172616D0002
:100AD000496E70757420776865656C207261646911
:100AE00075732E2E203E200023647361766500000E
:100AF0005FB70008237365746364730079B70008F7
:100B0000AF0200202373746765740000B4020020F4
:100B1000B2020020B6020020B8020020B437002044
:100B200097B70008237374696E697400BA020020D5
:100B300010B50A4601460848D0F8B802D0F81402A9
:100B400008B1012010BD044C204605F0C3FC20462E
:100B5000BDE8104005F01DBDC03C0020BCB5032819
:100B6000ADF8061020D84FF40074DFE800F00A0258
:100B700005084FF4806404E04FF4805401E04FF422
:100B800080440A4D21460022284602F02CF90848EC
:100B90000DF1060102224FF47A7304F003F928469E
:100BA0002146012202F01FF9BCBD00BF001802401F
:100BB000F0460020014801F0E1B800BFEC40002001
:100BC000014801F0DBB800BF4C410020014801F0B2
:100BD000D5B800BFAC410020014801F0CFB800BF3C
:100BE0000C420020014801F0C9B800BFCC3F0020F2
:100BF000014801F0C3B800BF2C400020014801F0BB
:100C0000BDB800BF8C400020026840F2FF311823BD
:100C100022EA0101D2B2103A5F2AB2FBF3F204A336
:100C200088BF043181659A5CC2650846704700BF81
:100C30000006101600061016B0B504688068256816
:100C40004028084625F480252560636008BF1046CB
:100C5000A06008BF0A46E260B0BD704781B0074897
:100C60004FF4FA510068B0FBF1F0009000BF00981B
:100C7000411E00280091F9D101B0704748010020C1
:100C8000BCB50446002041F2180501902068415986
:100C900041F48011415140590190FFF7DFFF206876
:100CA00001994151BCBD00003D4801F0CABB00BFE5
:100CB000F8B5044631B14FF480414FF40060C4E907
:100CC000021001E0D4E902102268E3692B4E156896
:100CD000002B05EA06054FF4007608BF4FF4C06606
:100CE00031432943264D0843106001201668A84768
:100CF000206840210660416046680120A8472068BE
:100D00004FF64172466000268660C66081691140D8
:100D10008031816187690120A84720688761C661A9
:100D2000C6690120A847206841F21801154BC66129
:100D300042581A40144B1A43425046580120A847C3
:100D4000206800F580518E6110494FF48056815122
:100D500087590120A847A16920680129875105D139
:100D600000F580500A4AC1691143C1616069094AAE
:100D70008188116000685060F8BD00BF0F8120FFBE
:100D8000A9210008233FDEF8040020028020C102D0
:100D90004000010040800240014801F052BB00BF0A
:100DA0002003002010B5094C4FF48060A0474FF499
:100DB0000060A0474FF48050A0474FF40050A04778
:100DC0004FF480402146BDE810400847392C000808
:100DD00070470022AFF30080B0B50E4C0346607A36
:100DE000012884BF0120B0BD657A00206055657A76
:100DF00004EB85056B60637A23441A72627A531C94
:100E00003032637242F63A73C8700A70A1F801304A
:100E1000B0BD00BFB03C00204B4A0329136823F447
:100E2000407313604FF4407338BF0B0211681943CD
:100E30001160116821F0F8011160116841EAC000E9
:100E400040F002001060106840F48030106070477D
:100E50001348016889050FD5016821F4007101600C
:100E6000016841F400610160016821F400610160E2
:100E7000016841F400710160016849050FD50168FE
:100E800021F480610160016841F4805101600168D2
:100E900021F480510160016841F480610160704774
:100EA000003C024028490A6822F440720A600A683D
:100EB00042F004020A600A6842EA002040F48030EE
:100EC00008607047204A136823F440731360136866
:100ED0001360136843F0010313600170704700BF93
:100EE00010B519490C6824F440740C600C6844F483
:100EF00040740C600C6844F001040C600260BFF3A5
:100F00006F8F436010BD00BF0F4A136823F4407316
:100F10001360136843F480731360136843F0010394
:100F200013600180704700BF074A136823F44073C1
:100F30001360136843F400731360136843F00103F4
:100F400013600160704700BF103C02402D480168EB
:100F5000C90606D52A49CA6942F00802CA611021A9
:100F600001600168890606D52549CA6942F0040274
:100F7000CA61202101600168490606D52049CA6975
:100F800042F00202CA61402101600168090606D5EB
:100F90001B49CA6942F00102CA61802101600168EF
:100FA000890706D51649CA6942F01002CA610221B2
:100FB00001607047F8B5044611480021114EC16127
:100FC00001F016FF0546671C3068C00309D5002FE5
:100FD000FAD024B101F00CFF401BA042F4D9032049
:100FE000F8BD3068C0071CBF01203060306810F0C9
:100FF000F20F03D0FFF7AAFF0120F8BD0020F8BDD3
:10100000B47100200C3C024010B5074C10210122A5
:1010100004F5006001F0E7FE20464FF40071002265
:10102000BDE8104001F0DFBE001002407047000034
:10103000F8B50022009290F83C20012A01D102214B
:1010400066E0D1F800C0012280F83C201FFA8CF342
:10105000BCF10A0F03EB430504D304681E3D04F101
:101060000C0602E0046804F1100607273268AF405E
:10107000BA4332608A68AA4035682A4332604D68B4
:10108000062D05D805EB850204F13401551F0BE050
:1010900005EB85060C2D87BF04F12C01A6F1410557
:1010A00004F13001A6F123051F220E68AA4026EAAA
:1010B00002020A6003FA05F20B681A430A60B34998
:1010C000A1F54172944220D1BCF1120F04D10A68FB
:1010D00042F480020A6018E02CF00102102A14D1B8
:1010E0000A68BCF1100F42F400020A600DD10949F0
:1010F000094A0968B1FBF2F101EB81014900009155
:10110000009911B100990139F9E7002180F83C10EC
:101110000846F8BD4801002040420F007047704764
:101120007047B0B50446006802684168920717D559
:1011300011F0200114D0216CC90603D4216C41F4B4
:1011400000712164816811F0405F02D1A16900291A
:101150006BD02046FFF7E2FF20686FF012010160BC
:1011600002684168520714D511F0800111D0216C3A
:10117000C90603D4216C41F400512164816811F443
:10118000401F25D02046FFF751FF20686FF00C016B
:10119000016002684168D20706D011F040011CBF0F
:1011A00001685FEAC17134D10268416892060ED5C8
:1011B00011F080610BD0616C6FF0200541F00201ED
:1011C000616405602046FFF7ABFF20680560B0BD95
:1011D000816B11F4401F02D081684905D2D4416867
:1011E0004905CFD4816811F0405FCBD1A1690029B6
:1011F000C8D1416821F080014160206C20F480500A
:101200002064206CC005BDD4206C40F00100206437
:10121000B8E7206C40F480302064204600F0BEF82F
:1012200020686FF001010160BEE7C16A11F4700F20
:1012300003D0816849053FF58CAF416821F020015A
:101240004160206C20F480702064206CC0043FF565
:1012500080AF206C40F0010020647AE7002841D084
:1012600070B50446006C30B9204600F099F80020B3
:1012700084F83C006064206CC00635D4206C41F2D8
:1012800002118843414902302064086820F440304C
:10129000086094E80D0025690E6832430A604168D1
:1012A00021F480714160416841EA05214160416853
:1012B00021F04071416041681943354B41608168BC
:1012C00021F400618160E168826811438160816876
:1012D00021F070618160A26A81689A4206D121F092
:1012E00040510CE00120704701204AE01143816029
:1012F000816821F040518160E16A82681143816018
:10130000816821F002018160226AA169836843EA51
:101310004101816041686AB141F400611D4A416048
:10132000416821F460414160616A02EB41314268E9
:10133000114301E021F400614160174DC16A21F4BD
:101340007001C162E2696169236B05EB0252C56AF3
:101350002A43C262826822F400728260826842EA92
:1013600043228260826822F480628260826842EA5C
:1013700081210122816000206064216C62F30101FF
:101380002164002184F83C1070BD00BF042301409B
:101390000100000F00E0FFFF0000F0FF70470000B9
:1013A000F0B587B0044602A81421FEF751FF21686A
:1013B0006548814243D10026224900F560400196EC
:1013C0004A6942F480724A614A6902F48072019269
:1013D000019A01960A6842F001020A60096801F068
:1013E0000101019103210496039178210291019951
:1013F00002A901F02BFC144D144F4FF480704FF4F0
:1014000080414FF480524FF48063C5E90866C5E916
:101410000076C5E90266C5E90432C5E9061028462A
:1014200000F064FD08B1FFF7D3FC12200121002277
:10143000AC63A56301F06CFD122001F05BFD07B009
:10144000F0BD00BF30380240CC3F002010640240A5
:101450007CB504460020019094F83C00012804BFAC
:1014600002207CBD13460A460120216884F83C0016
:101470008868C00710D188682F4D40F0010088604F
:101480002C480068B0FBF5F000EB4000019001989B
:1014900010B101980138F9E78868C00747D0206C7F
:1014A00040F20175A84300F580702064486840054B
:1014B00004D5206C012565F30D302064206C0025D7
:1014C000204EC00444BF656C25F0060565646FF0CE
:1014D000220500200D604D6845F080654D6084F860
:1014E0003C00164DA06BC564154DC0E90F658D68B5
:1014F00045F480758D604C3100F024FE124821685F
:10150000D0F80423D2060AD0814210D1816811F0AC
:10151000405F0CD1816841F08041816007E08868BC
:1015200010F0405F03D1886840F080408860002060
:101530007CBD00BF4801002040420F004505000867
:1015400057050008DD04000800200140B0B504463E
:1015500090F83C00012804BF0220B0BD216800259E
:10156000886820F001008860012084F83C008868C9
:10157000C0074FF0000011D1886820F480708860A7
:10158000A06B00F0A4FB21684A6822F080624A60E8
:1015900041F20112216C91430131216484F83C50E5
:1015A000B0BD90F82020013A012A04D8006800F16B
:1015B0001402002004E000F1240201204FF48021F5
:1015C000136819431160704770B590F82060046883
:1015D000013EA568012E0CD815F0E05F0FD0C5F3D1
:1015E0000165032D11D100F1240101204FF4000207
:1015F00032E000F1240101204FF480222CE000F1C0
:10160000240101204FF4001226E00120A8401860B8
:10161000886818B14B6840EAC30301E008684305D5
:1016200004EB0510D1E903452343C0F88031C0F82D
:101630008451097D012905D100F5C2710B6843F47D
:1016400080730B605168C0F88C1111680122C0F8DA
:10165000881100F5C07100200B681A430A6070BD44
:10166000F0B590F82020013A012A29D830480268C4
:1016700042F001020260026822F47C520260CD69ED
:101680004C694A6A036843EA02220123012D026081
:1016900004F01F0203FA02F2C36923EA0203C361E2
:1016A0006FEA020312D025BBC5681D40C56000EB80
:1016B000C405CE688F8847EA06462E640D4611E0C1
:1016C000416A41F4802141620120F0BDC5681543A3
:1016D000C56000EBC4050E688F8847EA06462E6495
:1016E00001F10C058E682D8800EBC40445EA06451F
:1016F000656444688F690E69096A44EA0205002F2F
:1017000008BF04EA03054560002E446944EA020567
:1017100008BF04EA03050129456102D1C1691143EB
:10172000C161016821F0010101600020F0BD00BF2E
:1017300000660040704770B590F82040013C012CD5
:1017400003D8046839B1256906E000F124010120BD
:101750004FF480226DE0E568AD0760D004EB011422
:10176000D4F8B05115F00405956004F5D875D4F897
:10177000B06119BFF6085660760D16602D6805F049
:101780000205D560D4F8B45105F00F051561D4F801
:10179000B451C5F307259561D4F8B4514FEA154506
:1017A0005561D4F8B8211A70026802EB0112D2F820
:1017B000B8214FEA12225A70026802EB0112D2F8E5
:1017C000B8214FEA12429A70026802EB0112D2F875
:1017D000B8214FEA1262DA70026802EB0112D2F805
:1017E000BC211A71026802EB0112D2F8BC214FEA47
:1017F00012225A71026802EB0112D2F8BC214FEAA0
:1018000012429A71026802EB0112D2F8BC214FEA2F
:101810001262DA71006841B100F1100107E000F1D5
:10182000240101204FF4001203E000F10C0100201C
:1018300020220B681A430A6070BD90F8201001390D
:10184000012984BF0020704700688168C1F380616E
:101850008268C2F3C06280681144C0F3007008441B
:10186000704700002DE9F84F044600684669D0F83B
:1018700004908768D0F80CB0D0F810A0D0F8188089
:10188000F10701D1002545E0F9070FD00121816062
:10189000B80708D4780720D4380700F1BB80204669
:1018A00000F00EFA02E0204600F00BFA0025F805E1
:1018B00018D520684FF480718160B80509D4780587
:1018C0000ED438054EBF05F58045204600F0FAF9E4
:1018D00008E0204600F0F7F904E04FF40065E6E781
:1018E00005F50055F80315D520684FF48031816067
:1018F000B80309D478030BD438034EBF05F58035FF
:10190000204600F0E1F905E0204600F0DEF901E0B4
:1019100005F50045300707D51BF0100004D02068FE
:10192000102145F40075C160700708D51BF0080050
:1019300005D020680821C160204600F05BF9B0079F
:1019400006D52068C068800702D0204600F054F910
:10195000700607D51AF0100004D02068102145F455
:1019600080650161B00608D51AF0080005D020682E
:1019700008210161204600F075F9F00606D52068BF
:101980000069800702D0204600F06DF9B00308D549
:1019900019F0100005D0206810214160204600F0A9
:1019A00063F9F00308D519F0080005D02068082174
:1019B0004160204600F08AF9300444D55FEA49705E
:1019C0003ED506F480705FEA887108EA102040EA8C
:1019D0000500014648BF41F00201B20558BF01466B
:1019E0005FEA48700D4648BF45F00405700558BFD2
:1019F0000D46300524D518F0700021D010380009AC
:101A0000052818D8DFE800F003090C0F121545F07F
:101A1000080510E04FF4805549E745F010050AE04D
:101A200045F0200507E045F0400504E045F080055D
:101A300001E045F480752068816921F070018161C1
:101A40002068042141603DB1606A284360622046FD
:101A5000BDE8F84FFFF76EBEBDE8F88F70B5C0B1B6
:101A6000044690F8200010B9204600F06FF8206876
:101A7000016821F00201016001F0BAF90546206811
:101A80004168890707D501F0B3F9401B0B28F6D34D
:101A900011E0012070BD016841F00101016001F019
:101AA000A7F9054620684168C9070BD101F0A0F9E4
:101AB000401B0B28F6D3606A052140F400306062B9
:101AC000012040E0217E0268261D22F080030129CA
:101AD00008BF42F080030360617E026822F0400389
:101AE000012908BF42F040030360A17E026822F092
:101AF0002003012908BF42F020030360E17E026851
:101B000042F01003012908BF22F010030360217F77
:101B1000026822F00803012908BF42F008030360AD
:101B2000617F026822F00403012908BF42F0040328
:101B300003606ECE1A432A43013932431143C16117
:101B400000200121606284F8201070BDB0B586B01D
:101B5000044601A81421FEF77BFB2168214881423D
:101B60003ED10021204A00F5D0300091136943F0A6
:101B700000731361136903F000730093009B0091DD
:101B8000136843F002031360126802F0020200922D
:101B9000092205920322CDE90312022102914FF49A
:101BA00040710191009901A901F050F80F4C1320E8
:101BB00001210022A0470E4D1320A8471420012127
:101BC0000022A0471420A847152001210022A04789
:101BD0001520A847162001210022A0471620A8475B
:101BE00006B0B0BD0064004030380240112F00083C
:101BF000F52E000870470000B0B50F4D00212C46AF
:101C000044F8501F0021A4F130032246FFF793FD52
:101C100014F8300C012805D108A01021FEF788FF28
:101C200095F82000022818BFB0BD09A01021BDE81A
:101C3000B040FEF77DBF00BFA802002055534232DE
:101C4000204163746976617465640D0A00000000C8
:101C500055534233204163746976617465640D0A9B
:101C600000000000704770477047B0B5044690F818
:101C7000200001281BD1022084F820002068016880
:101C800021F00101016001F0B3F8054620684068C9
:101C9000C00712D001F0ACF8401B0B28F6D3606AE5
:101CA00040F400306062052084F8200003E0606AA0
:101CB00040F4002060620120B0BD00206062B0BD31
:101CC000704770477047704770477047704770B5EE
:101CD000866D044601F08CF8054694F8350002281C
:101CE0001ED12068216C026822F01602026042694F
:101CF00022F08002426109B9A16C19B1016821F09A
:101D000008010160016821F0010101600068C0075D
:101D10000DD001F06DF8401B052814D82068F5E7B8
:101D2000002084F8340080206065012070BDE06DE3
:101D30003F2101FA00F00121B060002084F8340056
:101D400084F8351070BD20206065002084F83400D0
:101D5000032084F8350070BD90F83510022909D1B0
:101D6000052180F835100068016821F0010101604B
:101D7000002070478021416501207047F8B5044676
:101D80000020594A08210090D4E916601568376888
:101D9000814039420CD0226813685B0708D513686C
:101DA00023F004031360B160616D41F001016165CE
:101DB00001218140394208D022685269120604D5B7
:101DC000B160616D41F002016165042181403942D9
:101DD00008D022681268920704D5B160616D41F0A5
:101DE0000401616510218140394217D020680268E2
:101DF000120713D5B16002680168520306D4C90501
:101E000006D4016821F00801016001E0080301D453
:101E1000216C00E0A16C09B120468847E16D2020CB
:101E200000FA01F23A423BD020680368DB0637D55E
:101E3000B26094F835300268052B19D122F01602F1
:101E40000260426922F080024261226C0AB9A26CEF
:101E50001AB1026822F0080202603F208840B06098
:101E6000002084F83400012084F83500216D37E02B
:101E7000016852030CD4C9050ED4016821F0100189
:101E80000160002084F83400012084F8350003E06C
:101E9000080301D4616C00E0E16B09B1204688477A
:101EA000606D00B3606DC00719D005214FF4165066
:101EB00084F83510B5FBF0F021680A6822F00102C1
:101EC0000A60009A01328242009202D80A68D20760
:101ED000F7D1012084F83500002084F83400E16C4B
:101EE00009B120468847F8BD480100202DE9F0419E
:101EF000044600F07DFFACB10546022084F83500B1
:101F00000020216884F83400086820F0010008608F
:101F10000868C00709D000F06BFF401B052838D8BF
:101F20002168F5E70120BDE8F0810868271D344AE3
:101F3000E8CF00EA020ED4E9050CD4E9072843EA09
:101F40000E032B4333433B431843636A40EA0C00C0
:101F50001043042B40EA08021FD1D4E90A53206B36
:101F60001A4340EA0200086051F8140F20F0030001
:101F700040EA050040F00402B3B1BCF5005F24D094
:101F8000BCF1000F31D1022D32D0012D27D0002D10
:101F90002DE003262027032012E00A6051F8140FD9
:101FA00020F0070040EA030220460A60FEF72CFEFC
:101FB000E16D3F220027012602FA01F18160002035
:101FC000676584F83560BDE8F081032DECD8012603
:101FD00040270120DFE805F0020C0203F0E7A3F13F
:101FE000C070B0FA80F0400904E0032D04D3DBD1C7
:101FF000C3F300600028D7D0012640270120DFE787
:102000003F8010F02DE9F84F93460D46044600F04E
:10201000EFFE844694F83500022817D12068006846
:10202000C00518D410210095002D0BF1010A4FF0C6
:1020300008074FF001064FF0040508BF2021D4E93E
:10204000169001FA00F8D9F800103CE0002084F85E
:102050003400802001E04FF4807060650120BDE80D
:10206000F88FBAF1000F0ED0BBF1000F5FD06546BC
:1020700000F0BEFEAC46042501260827A0EB0C00AC
:10208000584554D8E06DD9F8001007FA00F20A421A
:1020900005D0636D43F001036365C9F8082006FAB3
:1020A00000F20A4205D0636D43F002036365C9F88C
:1020B000082005FA00F20A4205D0636D43F00403DC
:1020C0006365C9F8082011EA080F04BF616D5FEA73
:1020D000C171C6D0616D11B1616DC90709D1009997
:1020E000C1B1102101FA00F0C9F808000020BDE8D4
:1020F000F88F2046FFF7EBFDE06D302101FA00F08C
:10210000C9F80800002084F83400012084F8350064
:10211000BDE8F88F302101FA00F00121C9F808006C
:10212000002084F8340084F83510BDE8F88F2020B2
:102130006065002084F83400012084F83500032015
:10214000BDE8F88FB0B5044690F83400012828D0D7
:102150000120A56D84F8340094F8350001281DD1C4
:10216000022084F83500002060652046FEF764FDFB
:10217000E26D3F232068216C03FA02F2AA60026834
:1021800042F01602026019B1016841F008010160D5
:10219000016841F0010101600020B0BD002084F819
:1021A00034000220B0BD0000BCB5019000F020FE5C
:1021B000044606480078019D691C18BF054400F0DC
:1021C00017FE001BA842FAD3BCBD00BF10000020C0
:1021D0002DE9F8430D4690F84510044602200129E8
:1021E0007BD084F844000120002D84F8450020684D
:1021F00001685FD03A4AD5E90689114095E8CC508C
:1022000011431943D4E90223314305F12006394330
:10221000114341EA0C0141EA0E0119434CCE41EA57
:102220000801DFF8C08041EA090111431943314335
:10223000016007680120C04720680760D5E90BC22C
:10224000D5E90D37D5E90F61D5E911E942EA0C026C
:102250001A433A433243114341EA0E0141EA09016C
:10226000416046680120C0472068466005F14C0681
:102270004ECE8160C2604FF6417281691140EA6DB5
:10228000314341EA034111432A6E11436A6E1143FF
:10229000AA6E1143816186690120C047206886616A
:1022A000D5E91B121143C161C5690120C0472068EF
:1022B000C5610CE0D4E9022321F490411143194394
:1022C000016005680120FFF76FFF206805600020AE
:1022D000012184F8450084F84410BDE8F88300BF6C
:1022E0000F8120FFA9210008F0B590F84550022485
:1022F000012D2DD080F8444001245D1E002644F2BB
:10230000F45E4FF0004C816280F8454001F12004FA
:10231000B34213D044E907E244F820CC02F2F4526D
:102320008769012F0F4608BF44F81CECAE4238BF46
:10233000274644F8147C20340136E9E7026841F26C
:102340000C030024D150012180F8454080F844104E
:102350002046F0BDF0B590F845500224012D2FD055
:1023600080F8444001245D1E00264FF4801CC162A9
:1023700080F8454001F12004B34217D044F8182CEE
:1023800044F820CCC7692FB954F8207C47F44007A3
:1023900044F8207C0F46AE4202F2F45206F10106E8
:1023A00038BF274644F8147C2034E5E7026841F240
:1023B00010030024D150012180F8454080F84410DA
:1023C0002046F0BD704710B590F845200221012A43
:1023D00035D080F844100122836A80F845201968BE
:1023E00000290AD41968C90509D4196889050CD4CB
:1023F000D9688162816B0131816301211AE0816BAF
:102400004C1C846349B1016B09E000240121C0E93F
:102410000C348163DB6883620CE0194603638968CE
:10242000436301641968DB688362C1F30D410439B9
:10243000C1630021002380F8453080F8442008461D
:1024400010BDB0B50446006841F21401425852066E
:1024500008D401440968C90712D0204600F0D4FA14
:10246000012103E0204600F0E9F94021206841F213
:1024700014028150002184F84510012184F8441091
:1024800041F214054FF480314151405900040CD5FC
:102490002046FFF797FF20684FF40041415100208C
:1024A00084F84500012084F84400B0BDFEB5044620
:1024B00000200290B4B394F8440028B9002084F8B6
:1024C0004500204600F0DEF800204FF480560190D1
:1024D0006448016841F480410160006800F4804074
:1024E000019001986048016821F4000101602168B1
:1024F000226A03681A430260885940F0010088513B
:1025000000F076FC054620688159C9070CD000F020
:102510006FFC401BB0F5FA7FF5D90020032584F845
:1025200045002BE001252BE0056901F041FB4F49F7
:102530004F4B421825F01C019A4202D841F0080185
:102540000EE04C4A4C4B02449A4202D841F00C0136
:1025500006E04A4A10444A4A904228BF41F004012A
:1025600020684FF4004201612046002100F04DFA3E
:1025700040B1204601210125FEF79AFB84F8445022
:102580002846FEBDFF20FFF70FFE606800284FD0F1
:1025900000F02EFC054602AE41F2893720460121AB
:1025A000324600F013F900F023FC401BB84233D24E
:1025B0009DF808004007F1D5204600214FF48052D5
:1025C00000F023FA0028D4D100F012FC054602AE38
:1025D00041F2893720460121324600F0F7F800F039
:1025E00007FC401BB84217D29DF808008006F1D5C1
:1025F00002AA20461F2100F0E9F80028B9D102986C
:102600004FF4006101EAC0114007E16054BF4FF48C
:1026100080400020A0601BE0204601210125FEF73C
:1026200047FB002084F8450084F844500325A7E7C1
:10263000D4E90201400840EAD100002182B22046DC
:1026400000F0E3F9002894D140F6FF70FFF7ACFDED
:10265000204600210025FEF72BFB012084F84400D2
:102660008EE700BF443802400438014000D3CEFE5C
:10267000BFE1E40040F1E9FD3F787D0100796CFCA9
:10268000005A62022DE9F04786B0044601A81421E1
:10269000FDF7DEFD20684949884240F08C80002625
:1026A0004748484C4FF00B084FF0030901AD464F27
:1026B0004FF0020A0096016841F000710160016864
:1026C00001F00071009100990096016841F080616D
:1026D0000160016801F08061009100990096016835
:1026E00041F000610160016801F000610091009912
:1026F0000096016841F004010160016801F00401E5
:10270000009100990096016841F0010101600168A3
:1027100001F00101009100990096016841F0020169
:102720000160016801F002010091009900960168C2
:1027300041F0400101602946006800F0400000902F
:102740000098CDF81480CDE90369CDF808A03220B7
:10275000019004F50060B8478620CDE90498CDE9E2
:1027600002A6294601902046B8474FF40050CDE913
:102770000498CDE902A62946019004F58060B84787
:102780004FF42050CDE90498CDE902A629460190E6
:1027900004F5C050B8473D200121002200F0B8FBED
:1027A0003D2000F0A7FB3E200121002200F0B0FBFD
:1027B0003E2000F09FFB06B0BDE8F087008002409D
:1027C00030380240000002404D2C0008F8B50446A5
:1027D00090F84400822804BF0220F8BD82201546EC
:1027E00084F844002068026902F01C0261F38A1236
:1027F000218A01F01F0142EAC1214F1C076100F04C
:10280000F7FA0646F80708D000F0F2FA801BB0F598
:10281000803F0BD220680769F4E7206801214069F6
:1028200084F8441080B228600020F8BD002084F8AD
:102830004500012084F844000320F8BD70477CB5B2
:10284000044690F845000225012830D084F8445011
:102850000126002584F8456000952068016841F054
:102860000801016000680090FEF7F8F920680099FF
:1028700001600195016841F0040101600068019068
:10288000FEF7ECF92068019901602046FEF7F8F99F
:10289000206841F21801425842F400524250425816
:1028A00042F00202425084F8455084F844602846C1
:1028B0007CBD7CB5044690F845000225012830D047
:1028C00084F8445041F2180101260025206842583E
:1028D00022F400524250425822F00202425084F840
:1028E00045600195016821F00401016000680190D4
:1028F000FEF7B4F92068019901602046FEF7C0F99F
:1029000000952068016821F00801016000680090CE
:10291000FEF7A4F920680099016084F8455084F816
:10292000446028467CBD0000F0B590F84530022296
:10293000012B3FD0012380F8442080F8453081B33B
:10294000C26A1368002B2ED440F2F55399420BD380
:1029500040F2F45CB1FBFCF404FB1C15002D18BF25
:1029600001252C44012C27D11368D4686FF35F3103
:1029700043F0405313605160C462116841F000415C
:102980001160016841F214028A5852074FF00002A8
:1029900005D541F20403194404230B610A600123A5
:1029A00003E0012201E001221223002180F84510FA
:1029B00080F844301046F0BD124D002604FB05118E
:1029C000651E01F2F4516FF35F31A642D9D2176848
:1029D00027F0405717601EB9176847F080571760F7
:1029E000B542C2F804C004D15160176847F00057DF
:1029F00017601768D368013647F00047C362176055
:102A00001A46E2E70CFAFFFF704770B5044690F8EB
:102A10004400422804BF022070BD422092B284F8D4
:102A2000440020680369426103F01C0261F38A12CA
:102A3000218A01F01F0142EAC121CE1C066100F08B
:102A4000D7F90546F00708D000F0D2F9401BB0F5E1
:102A5000803F07D220680669F4E7012084F844002B
:102A6000002070BD002084F84500012084F8440057
:102A7000032070BD2DE9F843DFF82081054698F862
:102A80001800012801D102263EE00120894688F87D
:102A900018004CF25030FEF78DFA064688BB4FF016
:102AA000FF303F4CC9F80000286801280CD1287C71
:102AB000FEF7F8F94CF25030FEF77CFA0646206833
:102AC00020F0040020601AE0A8680746E96808447E
:102AD000874210D2297C3846FEF79EF94CF25030DE
:102AE000FEF768FA0646206820F0FA00206026B952
:102AF000A8680137EAE7002601E0C9F80070FEF790
:102B0000A7F9002088F818003046BDE8F88300BF18
:102B10002348016841F0004101600020704700BF78
:102B20002DE9F041DFF87480074698F81800012875
:102B300004BF0220BDE8F08101201E4614460D4668
:102B400088F818004CF25030FEF734FA08BB022F18
:102B500007D0012F0AD077B9E1B22846FEF7B2F9C3
:102B60000EE028462146FEF7DFF909E0A1B228462B
:102B7000FEF7CAF904E0284622463346FEF7B0F9CC
:102B80004CF25030FEF716FA05490A6822F00102AD
:102B90000A60002188F81810BDE8F081B4710020A7
:102BA000103C02400648C168B1F1FF3FC4BF00209D
:102BB00070470449016004490160C068C00F704754
:102BC000043C024023016745AB89EFCDB0B5410518
:102BD00005D517490122CA704A8901324A81154C2C
:102BE000000506D4124800790138B0FA80F0400997
:102BF00009E02046802100F0F0F80D4901208A8983
:102C0000087101328A810A4DE97801290ED168B133
:102C10002046012100F0E1F804F540604FF4007116
:102C2000012200F0E0F80020C5F80300B0BD00BFAD
:102C3000A80200200004024003490A68024208BFBB
:102C400070470860FFF7C2BF143C01402DE9F84F00
:102C5000594A4FF0090A4FF0010B4FF000084FF0AE
:102C6000000E9042554A08BF4FF0080A02444FEA4E
:102C7000B223082B38BF4FEAB22A00220E6836FA78
:102C800002F508BFBDE8F88F0BFA02F516EA050950
:102C900000F085804F68122F00F287800BFA07F44E
:102CA00014F0061F00F08180032303FA0EF48368FA
:102CB000CE686FEA040CA34306FA0EF63343836032
:102CC0003B094668934026EA05052B4355004360BF
:102CD000C3688C6803EA0C03AC402343C36047F02D
:102CE0001003122B11D16FF0030608F01C030F2400
:102CF00006EA52069C400644376A27EA04040F6934
:102D000007FA03F3234333624F68036807F00304B1
:102D1000AC4003EA0C0323430360FB003FD50023D0
:102D2000294C274F22F00305009323683D4443F4C8
:102D30008043236023680F2403F48043009308F04A
:102D40000C03009E9C400AFA03F3204EB446AE5991
:102D500026EA0404234345F80C303B684D6843EAF7
:102D60000904EE0358BF23EA09043C60AE037B6804
:102D700043EA090458BF23EA09047C60EE02BB68F9
:102D8000104E43EA090458BF23EA0904BC60AD02AF
:102D9000336843EA090458BF23EA0904346008F1A0
:102DA00004080EF1020E013268E70323754603FAA8
:102DB0000EF46FEA040C8BE7002002400000FEBF17
:102DC000003C01400C3C01404438024008FCFFFF3D
:102DD0000069084018BF0120704742690A4218BFC5
:102DE000090481617047002A08BF090481617047A6
:102DF00005480068704700BF1F48034900780A680B
:102E000010440860704700BF2C78002080B50B4844
:102E1000016841F400710160016841F48061016062
:102E2000016841F480710160032000F08DF80120F9
:102E300000F006F800F024F8002080BD003C0240BD
:102E400070B50D4E04464FF47A713078B1FBF0F056
:102E50000A490968B1FBF0F002F054F801250F2C83
:102E600008D838B94FF0FF3021460022002500F085
:102E70004FF87460284670BD100000204801002003
:102E80001CB5002019491A4C01904A6842F480424E
:102E90004A604A6802F480420192019A00900868F0
:102EA000002240F0805008600868012100F0805046
:102EB000009000986FF00B00A0476FF00A0001210E
:102EC0000022A0476FF0090001210022A0476FF007
:102ED000040001210022A0476FF00100012100221F
:102EE000234602B0BDE81040184700BF40380240FA
:102EF000112F0008002808D400F01F01012240090A
:102F000002FA01F1014A42F82010704700E100E0A6
:102F100070B5134B4FF0FF351B68C3F30223DC1E63
:102F200083F0070338BF0024042B28BF042305FACD
:102F300004F605FA03F3B2439943A1401143BDE8F7
:102F4000704004F087BC00BF05494FF6FF030A68D4
:102F50001A4060F30A22034810430860704700BF1C
:102F60000CED00E00000FA050068416200207047A7
:102F7000B0B50068436AB1B1846A013903EB144308
:102F80000024E5B2A94207D900EB85050134D5F844
:102F9000045103EB1543F4E700EB810043EA0241DF
:102FA000C0F8041102E043EA024181620020B0BD92
:102FB000D0F8FC0303F0B3BCC1EBC10200EB82020A
:102FC000D0F8FC03926C03F00CBCC1EBC10200EB27
:102FD0008202D0F8FC03D2F8082203F061BCD0F8DA
:102FE000FC0303F09EBC10B5044601F00F00090677
:102FF000C0EBC00104EB81015DBF002281F8FD211F
:1030000001F5FE71012244BF81F83D203C3108707A
:1030100094F8BC03012804BF022010BD012084F8ED
:10302000BC03206804F048F8002084F8BC0310BDFD
:10303000B0B5044601F00F006268904201D9012545
:1030400021E009064FF00005C0EBC00104EB81014F
:103050005DBF002281F8FD2101F5FE71012244BF10
:1030600081F83D203C3108708D7094F8BC03012834
:1030700001D1022507E0012084F8BC03206804F098
:10308000E7F984F8BC532846B0BD01F00F01C1EB4D
:10309000C10100EB8100D0F814027047B0B50446BE
:1030A00001F00F000906C0EBC00104EB81015DBF18
:1030B000002581F8FD5101F5FE71012544BF81F81D
:1030C0003D503C318A60CB7008704A7802B1C880AC
:1030D000022B04BF0020087194F8BC03012804BF30
:1030E0000220B0BD012084F8BC03206803F03CFF3F
:1030F000002084F8BC03B0BDB0B501F00F04C4EBF0
:10310000C40100EB81050021C5E9843185F8FD117A
:10311000C5F8082285F8FC4105F5FE710369012B0D
:1031200008BFC5F80C22DAB2006814B104F0C4F983
:1031300001E004F0EDF80020B0BDB0B504464068F1
:1031400001F00F05854284BF0120B0BD080609D4F7
:10315000C1EBC100002104EB800080F8FD1100F5F7
:10316000FE7108E0C5EBC500012104EB800080F88A
:103170003D1000F13C0194F8BC2301200D708870D3
:10318000012A04BF0220B0BD84F8BC03206804F00B
:1031900077F92DB9217C206804F5717204F02CF9BF
:1031A000002084F8BC03B0BD70B501F00F04002608
:1031B000C4EBC40100EB8105294601F83C4FC1E98D
:1031C00005360123CA604B700369012B08BFEA640E
:1031D000DAB2006814B104F06FF901E004F098F875
:1031E000002070BD2DE9F04F87B081460068059042
:1031F00004F042FA10B107B0BDE8F08FD9F8000032
:1032000004F066FA0028F6D0D9F8000004F060FA5D
:103210000146D9F80000890703D5416901F0020190
:10322000416104F055FA000310D4D9F8000004F00D
:103230004FFA400300F1DE80D9F8000004F048FAAC
:10324000002800F18E81D9F800009AE1D9F8000039
:1032500004F01DFA064609F5717009F5057A4FF07C
:10326000000B4FF430680690002EDED0F00700F01F
:10327000B9805FFA8BF5D9F80000294604F020FAEE
:103280000746C0075ED00598012140448160D9F807
:10329000000008EB0004016CA068D9F81020012A96
:1032A00028D1020735D482064AD410F0280F49D11C
:1032B000DC4A914202D310F400403ED15AE90401A5
:1032C00001444AF80C1C21696FF3DF41401A29467A
:1032D000CAF800004846FFF778FEB8F5306F31D1E4
:1032E000D9F8100270BBD9F80000069A012104F049
:1032F00083F827E0CB4AFF32914205D101041CD468
:10330000800644BF2020A06048462946FFF75DFEA6
:1033100018E0C44A914205D310F400401CBF4FF49A
:103320000040A060484600F07CFBD9F80000069AF7
:10333000012104F061F8082003E04FF4004000E0B0
:103340002020A060380730D5D9F8001008EB010024
:103350000C6C8168D9F81020012A03D1B14A94423B
:1033600004D20DE0AF4AFF32944209D111F400417A
:1033700006D04FF400418160484600F052FB06E061
:10338000484600F04EFBA7480138844209D9D9F8D5
:103390001000012805D1D9F80000069A012104F097
:1033A0002BF80598082140448160F80603D505985C
:1033B000102140448160B8060DD5D9F810000128CD
:1033C00005D1D9F80000069A012104F015F80598F6
:1033D000202140448160B80404D505984FF4005181
:1033E000404481600AF11C0A08F1200876080BF1BC
:1033F000010B39E7D9F8000004F042F9044609F559
:10340000717000270190059800F510660296002C57
:103410003FF412AFE00700F0A180D9F80000F9B244
:10342000069104F03BF90546C0072CD0059A07F039
:103430000F00012303FA00F0D2F8341821EA00004B
:10344000C2F8340806EB47108360D9F81000012851
:1034500007D1C7EBC70009EB8000D0E91112114476
:10346000816406994846FFF7A7FD67B9D9F81000AF
:10347000012808D1D9F8500028B9D9F80000019ADC
:10348000012103F0B9FF280742BF06EB47100821CE
:103490008160E80642BF06EB471010218160680694
:1034A00042BF06EB471040218160A80742BF06EBF0
:1034B000471002218160280650D5C7EBC70009EBF1
:1034C000800AD3465BF8500FD84658F8042F904234
:1034D00044D35AF8441FD9F8005004943B46841A48
:1034E0004F468C4288BF0C4605EB43110AF1040697
:1034F000039301F5106917E03C7CDAF8003031687D
:103500000094841A28469C4288BF1C46069AA3B29F
:1035100004F08EF9306820443060D8F800000219B9
:10352000DBF80000C8F80020D9F81830E11C9BB285
:10353000B3EB910F28BF9042DED8B946049CDDE979
:10354000026790420AD807F00F00012101FA00F04B
:10355000D5F8341821EA0000C5F8340864080137AA
:1035600055E70599D1F8040820F00100C1F80408D6
:10357000484600F03AFAD9F80000416901F00041EC
:10358000416104F0A5F8000502D4D9F800000DE06F
:103590000598D0F80808C00702D0484600F05EFA47
:1035A000D9F80000416901F40061416104F090F82C
:1035B000C00402D4D9F8000053E0059C1021D4F8CF
:1035C000040820F00100C4F80408D9F8000004F051
:1035D00035F8D9F8042004F5106104F500604FF6C1
:1035E0007F337AB18B60013A0C6824F400140C60CC
:1035F000C1F80832D1F8004224F40014C1F80042A6
:103600002031EEE7C16941F00111C161D9F83010F4
:1036100051B1D0F8841041F00B01C0F8841000F1D2
:10362000440108E00B30544F416942F22B02114330
:10363000416100F110010A6842F00B020A6009F5CD
:103640007172016821F4FE610160D9F8000099F8F7
:10365000101003F0D1FED9F80000416901F4805147
:10366000416104F035F80146D9F8000089041AD503
:1036700003F0B8FCD9F8000003F0F0FFD9F80050CF
:10368000C9F80C0000F094FA99F80C20014628467D
:1036900004F056F8484600F093F9D9F80000416963
:1036A00001F40051416104F013F80146D9F800001B
:1036B000C9063FD5816921F0100181610598046A2E
:1036C000C4F3434004F00F0506281CD002282BD178
:1036D00047F6F070044027D0C5EBC500220909EB7E
:1036E00080050598D5F8081203F0F6FFD5F8080212
:1036F000D5F8141200EB1410C5F8080201EB1410F1
:10370000C5F8140210E0059809F57171082203F05C
:10371000E3FFC5EBC50009EB8000D0F81412C4F339
:103720000A121144C0F81412D9F80000816941F05E
:103730001001816103F0CCFF000702D4D9F800002A
:1037400008E0484600F055F9D9F80000416901F059
:103750000801416103F0BCFFC00202D4D9F80000A7
:1037600009E04846002100F03AF8D9F80000416924
:1037700001F48011416103F0ABFF800202D4D9F85B
:10378000000009E04846002100F02DF8D9F80000BB
:10379000416901F40011416103F09AFF400002D435
:1037A000D9F8000008E04846FFF702FCD9F800000D
:1037B000416901F08041416103F08AFF40077FF5D4
:1037C0001AADD9F800004468610704D54846FFF7F0
:1037D00006FCD9F800004168214341600BE5D0F8B0
:1037E000FC0303F0EDB8D0F8FC0303F0EBB82DE9CF
:1037F000F04F8BB0002800F087800446056890F8F1
:10380000BD0328B9002084F8BC03204600F08CF8E2
:10381000032084F8BD03E86BC0055CBF0020206175
:10382000206803F06FFD206804F1140E04F1040B0E
:1038300004F1240A0A90D4E90C509EE8C0509BE899
:103840000E089AE80007CDE9085002A8CDE900B6B5
:1038500080E8805005A880E800070A9803F0DEFBA6
:1038600000284ED120680021002503F042FF616846
:1038700001200022D3B2994210D9C3EBC30604EB56
:10388000860686F83C20A6F8423086F83D0035656D
:10389000C6E9115586F83F500132EBE700200022BF
:1038A000D3B299420FD9C3EBC30304EB8303C3F82C
:1038B0001002C3E9810083F8FC2183F8FF0183F83B
:1038C000FD010132ECE7A06804F1140E04F1240AB2
:1038D00022680A90D4E90C50D4E9033B9EE8C0501A
:1038E0009AE80007CDE9085002A8CDE900B680E8C3
:1038F000805005A880E8000710460A9A03F02CFCC7
:1039000038B1022084F8BD03012528460BB0BDE87C
:10391000F08F0025012084F8385084F8BD0320681A
:1039200003F00EFCF1E70000F0B587B0044602A8F2
:103930001421FCF78DFC2068B0F1A04F3AD100278C
:103940001D4E1E4C02AD01972946306840F0010023
:103950003060306800F0010001900A2006900320DA
:10396000CDE90470022003904FF4E85002900198D2
:103970002046FFF76BF94FF40070CDE90377294635
:1039800002902046FFF762F970680121002240F0A2
:10399000800070600197706940F4804070617069C8
:1039A00000F48040019001984320FFF7B1FA4320D2
:1039B000FFF7A0FA07B0F0BD303802400000024027
:1039C00010B50446C06828B1022801D0FDF700FAFE
:1039D000012100E00021D4F8FC0303F048F8D4F8FA
:1039E000FC03BDE8104003F004B8D0F8FC0303F07A
:1039F00028B8D0F8FC0303F02EB810B5044690F8B0
:103A0000BC03012804BF022010BD84F83810012037
:103A100084F8BC03206803F083FE002084F8BC0314
:103A200010BDD0F8FC2300F57171104603F02BB8DF
:103A300010B5044690F8BC03012804BF022010BD55
:103A4000012084F8BC03206803F06EFB206803F0BB
:103A5000E1FD002084F8BC0310BD000010B5044651
:103A6000D0F8FC0303F04CF82068D0F8001E41F0B9
:103A70000101C0F8001E206A20B10348016841F02E
:103A80000601016010BD00BF10ED00E02DE9F0411E
:103A900000285FD0434B04460D46D3F8000400F0E5
:103AA0000F00884207D283F80054D3F8000400F0D6
:103AB0000F00A8424ED12068810711D5410703D5D8
:103AC000996841F4E0519960010703D5996841F480
:103AD00060419960A1689A6822F0F00211439960F0
:103AE000C00731D1D3F8000400F00F00A84207D975
:103AF00083F80054D3F8000400F00F00A84229D145
:103B00002068410705D5E1689A6822F4E052114324
:103B10009960000706D52069996821F4604141EA5F
:103B2000C00098601C4600F061F8A1681E4AC1F30D
:103B30000311515CC8402A4908601C480068FFF71F
:103B40007FF90020BDE8F0816068012805D119687F
:103B500089030AD40120BDE8F0811968022802D146
:103B60008901F7D501E08907F4D59968984621F0D5
:103B7000030108439860FFF73BF9064641F2883796
:103B80006068D8F80810434601F00C01B1EB800FD3
:103B9000A8D0FFF72DF9801BB842F1D90320BDE86A
:103BA000F08100BF003802401CB60008140000205D
:103BB0000B480068704700BF09480A490A4A006874
:103BC0000968C1F38221515CC84070470448054927
:103BD000054A00680968C1F34231515CC84070472A
:103BE00048010020083802402CB6000810B5134CDC
:103BF000606800F00C011248082903D004291CD188
:103C0000104810BD2168236801F03F0221685B0263
:103C1000C1F3881105D4A1FB00010023FCF7CEFA03
:103C200003E008484843B0FBF2F021680222C1F3E8
:103C3000014102EB4101B0FBF1F010BD043802403C
:103C40000024F40000127A002DE9FC41002879D00C
:103C500004460078AA4EC0072BD0B06800F00C00D4
:103C6000042805D13068800323D5606808BB69E06B
:103C7000B06800F00C00082802D170684002F1D44E
:103C80006068B0706768FFF7B3F8054677B13068D1
:103C900080030ED4FFF7ACF8401B6428F7D9C7E0C7
:103CA000FFF7A6F8411B0320642949D83068800338
:103CB000F6D42078800718D5B06810F00C0F07D024
:103CC000B06800F00C0008287CD17068400279D4FC
:103CD0003068800702D5E068012833D12069316857
:103CE00021F0F80141EAC0003060207800072CD4B0
:103CF000207840073CD4A7690FB3B06800F00C00EF
:103D0000082840F09880012F1CD0E169706800F409
:103D100080028A4216D1216A00F03F028A4211D104
:103D2000616AC0F388128A420CD1A16A00F4403261
:103D30008A4207D1E16A00F07060884202D1002017
:103D4000BDE8FC810120BDE8FC8161696D48002966
:103D50005FD00121C0F8801EFFF74AF80546706F5A
:103D60008007C5D4FFF744F8401B0228F7D95FE06D
:103D7000306C4FF00008C0000CD4CDF804804FF038
:103D80000108306C40F080503064306C00F080509E
:103D9000019001985C4F386840F480703860386852
:103DA000C00522D4386840F480703860FFF720F8EE
:103DB00005463868C00518D4FFF71AF8401B0228DA
:103DC000F7D935E0E068002854D04E480121016061
:103DD000FFF70EF80546306880073FF57FAFFFF725
:103DE00007F8401B0228F6D922E0A06886F8700088
:103DF000A768FEF7FDFF0546002F4CD041F288373B
:103E0000306F800753D4FEF7F3FF401BB842F7D959
:103E10000EE00021C0F8801EFEF7EAFF0546706F35
:103E200080077FF565AFFEF7E3FF401B0228F6D958
:103E30000320BDE8FC813349002088460866FEF770
:103E4000D7FF0546022F0AD147463068800137D593
:103E5000FEF7CEFF411B03206429F6D970E73068D6
:103E600080017FF56CAFFEF7C3FF411B032064297F
:103E7000F5D965E7234800210160FEF7B9FF054643
:103E8000306880077FF531AFFEF7B2FF411B03209A
:103E90000229F5D954E741F28837306F800706D5FB
:103EA000FEF7A6FF411B0320B942F6D948E7B8F157
:103EB000000F3FF420AF306C20F0805030641AE7E0
:103EC0001C341FCC0843D90340EA82104FF6FF721E
:103ED000914340EA0460A1F58031084370600120FD
:103EE0003866FEF785FF0446306880013FF527AF4E
:103EF000FEF77EFF011B03206429F5D920E700BFF0
:103F0000003802400000474200700040FCF76EBBE2
:103F1000F0B587B0044603200D4684F83400606C89
:103F200003280BD14FF08050A16B0843A063A06B16
:103F300040B320688C49816301202CE085B3B5F53E
:103F4000805FEFD0B5F5006F40D100200021CDE9B2
:103F50000400206801F045FB80013AD404A9204602
:103F600001F0AEFE0028DFD19DF8160040072AD5EB
:103F7000216D2068090401F06EFB0028D4D120686F
:103F8000022132E094E80F00D4E905678DE8E000F3
:103F900001F030FB0020012184F8341007B0F0BD9F
:103FA00000200021CDE90400206801F01AFB800107
:103FB0000FD404A9204601F083FE0028B4D19DF857
:103FC0001600C00708D14FF08060ADE74FF00060E9
:103FD000AAE74FF40060A7E7216D2068090401F00B
:103FE0003AFB0028A0D12068002101F085FB9BE767
:103FF00070470000B0B5D0E91942436CA50F012B02
:104000000D70C4F383654D70C4F301658D704FEA84
:104010001445CD704FEA14250D714C714FEA1254BE
:10402000CC80C2F303440C72C2F3C0344C72C2F3AE
:1040300080348C72C2F34034CC72C2F300340C73FF
:104040004FF000044C7330D0002B40F0818040F6DC
:10405000FC73012503EA8202C36E42EA93720A618D
:10406000C26EC2F3C2630B75C2F302634B75C2F337
:1040700042538B75C2F38243CB75C2F3C2330B76C6
:104080004FF4007303660B690C7E04F007040133E0
:104090000234A34043650C7A04F00F0405FA04F4DB
:1040A0008465640A6343C36512E0B0F86E3002F0C1
:1040B0003F0243EA02424FF480630A614FF4007208
:1040C000026682650A6903EB8222C2654265C26E9E
:1040D000C2F380334B76C2F3C61302F07F028B76B5
:1040E000CA76006FC20F0A77C0F341724A77C0F3F5
:1040F00082628A77C0F38352CA77C0F3405281F854
:104100002020002281F82120C0F3004381F82230D2
:10411000C0F3C03381F82330C0F3803381F82430FA
:10412000C0F3403381F82530C0F3003381F82630E6
:10413000C0F3812381F82730C0F30123C0B24008C7
:1041400081F8283081F82900012081F82A0009E04F
:104150000168054A8A630122816B41F080518163C5
:1041600080F834201046B0BDFF054000B0B500F126
:1041700044053CCD81E83C00426D0A61826D4A6194
:10418000C26D006EC86100208A61B0BD10B50446E2
:104190000068216D090401F0C1FB20B1A16B084347
:1041A000A063002010BD2068002101F01AFAC0F3BE
:1041B000432010BD2DE9FC4104460068256B416B8E
:1041C00015F0080618BF11F4004128D1416BC9054C
:1041D0003BD4416B002E5ED011F480415BD0D4F80B
:1041E0002480B8F1000F4ED0276A002601ADB8191F
:1041F000202E00F0AC8001780191427841EA022142
:104200000191827841EA02410191C07841EA00605F
:1042100029460190206801F019FA0436E7E7D4F83E
:104220002C80B8F1000F2ED0A66A0027F519202F98
:104230002BD0206801F0F7F9010E28700437E970DF
:10424000010C000AA9706870F0E74FF480714CF21D
:104250003A12002E8163C16B21EA0201C163C16A77
:1042600021F00101C16256D129060CD5A90608D555
:1042700001F0C0FB28B1A16B0843A0632046FFF703
:10428000B7FEA80773D0BDE8FC81A8F12000C4E9FF
:104290000A50BDE8FC81416B11F03A0FF3D0416B3D
:1042A000890703D5A16B41F00201A163416B0907A6
:1042B00003D5A16B41F00801A163416B890603D5C9
:1042C000A16B41F02001A163416BC90603D5A16B2D
:1042D00041F01001A16340F23A7140F23A32816339
:1042E000C16B9143C16301F085FBA16B40EA010002
:1042F000A06396BB2806C6D515F0300F44D0E06BFE
:104300002E490165FDF728FD0028BCD0E06BBDE813
:10431000FC4101F0B4BC15F0220F08D001F06AFB9B
:1043200028B1A16B0843A0632046FFF761FE206817
:1043300040F23A518163012084F834000020206368
:10434000A8071CD02046BDE8FC4100F0EFBAA8F158
:104350002001C4E90801BDE8FC81012084F8340093
:10436000002020632046BDE8FC41FFF741BE2068E5
:10437000C16A21F00801C162012084F8340020469E
:10438000BDE8FC4100F0D4BAA8070CD0206C0C4961
:104390000165FDF7E1FC00283FF475AF206CBDE836
:1043A000FC4101F04BBC00200121A06384F83410D3
:1043B00020632046BDE8FC41FFF7A8BD7F5C0008F4
:1043C0003D5C000810B590B1044690F8340020B967
:1043D00000202077204600F0EFF8032084F8340016
:1043E000204600F00DF80146012011B110BD01205A
:1043F00010BD0021A163216384F83400002010BDAA
:10440000F0B58FB004460068002676210022002314
:10441000CDE900660291002101F0ECF8012580B998
:10442000624F3E60206801F0F6F83D600496206817
:1044300001F07CF940B1012584F83450A16B0843A8
:10444000A06328460FB0F0BD206801F095F950B187
:104450000020A064206801F069F90028EBD1A06C6D
:10446000012802D009E00120A0642068002101F0A9
:10447000F2F810B14FF08050DDE74E4D00214FF6BD
:10448000FE760020049AC0B9B24216D820680021F6
:1044900001F0E1F80028CED12068294601F0F6F8B5
:1044A0000028E7D12068002101F09BF80499013130
:1044B0000491C0F38071C00FE4E704984FF6FF72D7
:1044C000904202D34FF08070B5E720680125616407
:1044D000ADF80E5001F081F888B1606C032811D15D
:1044E0002068042101F07DF8000D04A9E064204655
:1044F000FFF780FD002846D04FF080509CE74FF03A
:10450000806099E7206801F0C1F900287FF494AF3A
:104510002068274E0021B047606720680421B0471B
:10452000A06720680821B047E06720680C21B047E9
:10453000C4F88000606C0328D2D020680DF10E0111
:1045400001F006FA00287FF477AF606C0328C7D02B
:10455000BDF80E1020682165090401F0AEF90028AD
:104560007FF46AAF20680021B047606620680421AC
:10457000B047A06620680821B047E06620680C219B
:10458000B0472067ACE7216D206800230A0401F0E2
:1045900063F900287FF450AF94E86F00A469CDE977
:1045A0000056029401F026F800254AE7A080254233
:1045B000E3550008000010C12DE9F04F87B0044614
:1045C00002A81421FBF744FE2068554FB84240F082
:1045D000A3800022534807F55C4502AEDFF848810E
:1045E0004FF00C094FF0030A4FF0020B01924169A2
:1045F00041F400614161416901F400610191019957
:104600000192016841F004010160016801F00401B8
:10461000019101990192016841F008010160314660
:10462000006800F0080001900198CDF81890CDF8CE
:1046300014A0CDF80CB0012004904FF470600290EB
:104640002846C0470020CDE905A93146CDE903B091
:104650004FF4805002902846C0470120CDE905A9BB
:1046600031464FF0000ACDE903B04FF0040B07F5D7
:104670006040CDF808B0C0472C4D4FF003084FF410
:1046800000104FF400012A4E4FF480674FF480521F
:104690004FF00069C5E908ABC5E90A81286320200D
:1046A0004FF4804185E84006C5E903A7C5E9052127
:1046B000E8612846FDF71AFC08B1FCF789FBAC63FA
:1046C00025641C4D4FF4000006F14801C5E908AB14
:1046D000E8624FF40010C5F8288028634020C5E93F
:1046E0000019C5E9020A4FF480502F6168614FF448
:1046F0008040A8612020E8612846FDF7F7FB08B15B
:10470000FCF766FB312001210022AC63E563FEF774
:10471000FFFB3120FEF7EEFB07B0BDE8F08F00BFD6
:10472000002C0140303802404D2C00082C40002065
:10473000586402408C4000202DE9F04F87B01F469E
:10474000154689460446FEF753FBB9F1000F0ED01B
:10475000804694F8340001280DD100217819A16316
:10476000E26D90420FD9A06B40F0007006E0A06BA4
:1047700040F0006002E0A06B40F00050A063012018
:1047800007B0BDE8F08F032084F834002068626C25
:10479000C1624FF40071012A18BF6D0200F092FF50
:1047A00048B12168D74A8A63A16B0843A0630120FE
:1047B00084F83400E4E700204FF0010A022601A942
:1047C00005909020CDF818A0049603904FF0FF308C
:1047D000019078020290206800F0EDFE022F05D3D0
:1047E00026632946206801F003F805E0C4F830A0EC
:1047F0002946206801F016F858B12168C14A8A6339
:10480000A16B0843A0630120002184F834002163D8
:10481000B6E7DDF840A0DDF808B040F22A3620689F
:10482000426B416B32422FD1BBF1000F18BF11F424
:10483000004015D0002509EB0506202D0BD020687F
:1048400000F0F1FE010E30700435F170010C000A29
:10485000B1707070EFE7B146ABF1200B40F22A3631
:10486000FEF7C6FAA0EB08005045D8D32068A5494A
:104870008163A06B40F00040A063012084F8340005
:104880000020206303207BE7022F0FD311F48071F7
:104890000CD0616C032909D001F0ACF80146206806
:1048A00021B1984A8263A06B0843ABE7416B0907CB
:1048B0000BD4416B89070ED4416B890620D59149F1
:1048C0008163A06B40F020009CE78E498163A06B60
:1048D00040F0080096E78B498163A06B40F002002E
:1048E00090E700F0A0FEC9F80000FEF781FAA0EB07
:1048F0000800504513D2206809F10409ABF1040BFC
:10490000416BBBF1000F18BF11F40011E9D140F267
:104910003A518163012084F83400002030E7206898
:1049200078498163A06B40F000406BE7FBF79EBEC7
:10493000FBF7AEBE2DE9F04F87B09B4616460F46FB
:104940000446FEF755FA7FB1804694F834000128FA
:104950000ED100210BEB0600A163E26D90420FD94E
:10496000A06B40F0007006E0A06B40F0006002E039
:10497000A06B40F00050A063012007B0BDE8F08FAD
:10498000032084F834002068626CC1624FF4007127
:10499000012A18BF760200F095FE48B12168594AF5
:1049A0008A63A16B0843A063012084F83400E4E724
:1049B000012001A906900020CDE904009020039079
:1049C0004FF0FF3001904FEA4B200290206800F03A
:1049D000F2FDBBF1020F06D3202031462063206890
:1049E00001F024F805E0102031462063206801F032
:1049F00037F858B12168434A8A63A16B0843A06322
:104A00000120002184F834002163B6E7109DDDF811
:104A100008A040F21A396E462068426B416B12EAD8
:104A2000090F38D1BAF1000F18BF11F4804020D01F
:104A30004FF0000907EB0900B9F1200F14D00178FD
:104A40000091427841EA02210091827841EA0241D4
:104A50000091C07841EA006031460090206800F083
:104A6000F5FD09F10409E5E7AAF1200A074640F23D
:104A70001A39FEF7BDF9A0EB0800A842CCD3206894
:104A800020498163A06BA063012084F834000020DA
:104A90002063032071E7BBF1020F0FD311F4807183
:104AA0000CD0616C032909D000F0A4FF01462068F6
:104AB00021B1144A8263A06B0843A0E7416B090748
:104AC0000DD4416B890710D4416BC90613D440F251
:104AD0003A518163012084F8340000204DE70949F0
:104AE0008163A06B40F0080089E706498163A06BF1
:104AF00040F0020083E703498163A06B40F010009F
:104B00007DE700BFFF054000704700001CB504466C
:104B10000068416882684B0605D502F04103012B0D
:104B200001D1216C05E00B0607D512F0020304D079
:104B3000616C2046BDE81C4008478B0610D512F476
:104B4000B0730DD012F0400316D094F85130032BFF
:104B500007D100210191C1680191806801900198FD
:104B60001CBD636D43F00403636500230193C368B8
:104B7000019383680193019B02F4807312F0200279
:104B80000CD0626D42F001026265002201928268DF
:104B90000192026822F040020260019A43B1626D04
:104BA00042F0080262650022019282680192019A35
:104BB000626D002AD4D04268890722F0E002426088
:104BC0004FF0010284F851201CD0416821F003010C
:104BD0004160E06C40B10E490165FDF7BDF818B1C8
:104BE000606D40F040006065A06C0028B8D00849B6
:104BF0000165FDF7B1F80028B2D0606D40F04000CB
:104C000060651CBD2046BDE81C40FFF77DBF00BFAE
:104C1000715E0008F8B5B0B300240546846290F8D0
:104C2000510000284FF0000005D1284685F850407B
:104C300000F02CF8A86A022185F8511095E84E0082
:104C40001A430F68324327F040070F602B691A435D
:104C50006B691A43AB6903F400763243EE69324361
:104C60002E6A32431043086004206A6A00EA134047
:104C700010434860C86920F40060C86101206C6579
:104C800085F8510000E001242046F8BD2DE9F047E9
:104C900086B0044601A81421FBF7DAFA20683D4FDC
:104CA000B84274D10026ED484FF005084FF00309D3
:104CB00001AD4FF0020A0096016941F480410161A3
:104CC000016901F48041009100990096016841F06A
:104CD00004010160016801F004010091009900964F
:104CE000016841F0020101602946006800F00200FD
:104CF00000900098CDF81480CDE90369CDF808A0A4
:104D00000C20019007F5E830FDF7A0FFCDE90498ED
:104D10004FF4806807F5E6302946CDE902A6CDF8C4
:104D20000480FDF793FF1C4D1C4F142105F1140066
:104D3000C5E90076C5E90266C5F81080FBF788FA78
:104D40002846FDF7D3F808B1FCF742F8AC63E564F8
:104D5000134D07F118014020C5E9001605F10801BF
:104D600081E8410105F114001421FBF771FA28468E
:104D7000FDF7BCF808B1FCF72BF824200121002234
:104D8000AC63A564FEF7C4F82420FEF7B3F806B0C0
:104D9000BDE8F08700380040EC4000205860024039
:104DA0004C4100202DE9F843044690F850000128BA
:104DB00004BF0220BDE8F8834FF001091D461646E6
:104DC0000F4684F85090FEF713F8804694F851008F
:104DD000012853D10120002F00F08D80002E00F01B
:104DE0008A80032084F8510000206065E686A6864C
:104DF0002763A087A063C4E91000E087A16820684A
:104E0000B1F5004F03D1016841F4804101600168B0
:104E1000490603D4016841F0400101606168731ED6
:104E2000E268B3FA83F3B1FA81F15B09B2F5006F7E
:104E30004FEA511141EA030122D131B137F8021B87
:104E4000C1602763E08E0138E0866E1CE08ED0B32F
:104E500020688168890708D4FDF7CAFF002EF5D0C5
:104E6000A0EB0800A842F1D344E0216B31F8022BFB
:104E7000C2602163E08E0138E086E7E702203AE075
:104E800039B139780173206B01302063E08E01382D
:104E9000E0866E1CE08EB0B120688168890708D476
:104EA000FDF7A6FF002EF5D0A0EB0800A842F1D335
:104EB00020E0216B09780173206B01302063E08EC4
:104EC0000138E086E6E720462946424600F0D6FF54
:104ED00008B120206065A06838B9002000902068E3
:104EE000C1680091806800900098606D002818BF2C
:104EF000012000E00320002184F8501084F8519034
:104F0000BDE8F883411E0020B0EB116F1CBF0120EB
:104F10007047044AF023516003490B7007219060E9
:104F20001160704710E000E023ED00E010B590F84C
:104F30003C300222012B14D080F83D200368D1E9D7
:104F400000215C6824F0700422439C685A6024F0BD
:104F50008002114300229960012180F83C2080F8F2
:104F60003D10104610BD002844D0F8B5044690F816
:104F70003D000D4628B9002084F83C00204600F092
:104F80003BF8022044F2070284F83D002068816863
:104F900091438160211D01F047F82668D5E9000C96
:104FA000D5E90223B7683843B769316AB060A869A8
:104FB00042EA00204FF6FC4290434FF6FF7227EA88
:104FC00002021A431043EA6940EA02202A6940EAD1
:104FD00002102A6A40EA0230B06121F0AA00696931
:104FE00040EA0C0040EA01103062012084F83D00E4
:104FF0000020F8BD0120704710B586B0044601A816
:105000001421FBF725F921681348814222D10021A0
:10501000DD4A00F582300091536943F00203536189
:10502000536903F002030093009B0091136843F05F
:1050300004031360126802F0040200920322059236
:10504000CDE9031102210291C0210191009901A92A
:10505000FDF7FCFD06B010BD0004014030380240F1
:1050600010B50446042907D009B9002105E02068DD
:105070000021012201F042F804212068012201F000
:105080003DF82068016841F001010160002010BD79
:1050900070470000F8B5044600680168C2684669B8
:1050A00001F02F0502F02003202D05D123B1204669
:1050B000BDE8F84001F044B85FEA017E07D006F091
:1050C000010612F4907F86F0010725D127B3114025
:1050D0000A060DD449067AD5C16821F04001C160A5
:1050E000202084F839002046BDE8F84000F057B988
:1050F00094F8391021296AD1A268216AB2F5805F3B
:105100005CD10A886FF35F2242602269002A14BFD3
:1051100001310231216255E0CD0718BF12F48075CC
:1051200003D0E56B45F00105E56301F004054FF0A0
:10513000010C8CEA95053D4303D1E56B45F0020572
:10514000E56301F002058CEA55053D4303D1E56BAB
:1051500045F00405E563334318BF0123BEF1000F9A
:1051600004D51BB1E36B43F00803E363E36B73B354
:105170001140890603D5204600F0E2FF206840690F
:10518000E16B00F0400001F00801401825D02046F6
:1051900000F0C9FF20684169490619D5416921F02D
:1051A00040014161606B98B113490165FCF7D4FD82
:1051B00068B1606B016DBDE8F84008474A1C226287
:1051C00009784160E18C0139E18409040BD0F8BD14
:1051D0002046BDE8F840FFF75BBF2046FFF758FFC9
:1051E0000020E063F8BDC16821F08001C160C168A2
:1051F00041F04001C160F8BD1B61000850B310B51B
:10520000044690F8390028B9002084F83800204678
:1052100000F022F8242084F839002068C16821F4C5
:105220000051C160204600F0C7FF2068016921F4E9
:1052300090410161416921F02A014161C16841F455
:105240000051C16000202021E06384F8391084F807
:105250003A1010BD012070472DE9F04387B0044695
:1052600002A81421FAF7F4FF2068454988425FD06C
:105270004449884240F080800026434801960169F5
:1052800041F400310161016901F40031019101999A
:105290000196016841F00801016002A9006800F070
:1052A00008000190072006900320CDE90460022049
:1052B00003906020029001983448FDF7C7FC344DFC
:1052C000344F4FF000694FF48068142105F1140049
:1052D000C5E90079C5E90266C5F81080FAF7B8FF9C
:1052E0002846FCF703FE08B1FBF772FDAC6365636B
:1052F000294D07F118014020C5E9001905F1080101
:1053000081E8410105F114001421FAF7A1FF2846B4
:10531000FCF7ECFD08B1FBF75BFD26200121002224
:10532000AC632563FDF7F4FD2620FDF7E3FD23E0E4
:105330000020154901900A6942F480220A610A6935
:1053400002F480220192019A01900A6842F0080258
:105350000A60096801F00801019107210691032103
:10536000CDE90401022002A903904FF4407002909D
:1053700001980648FDF76AFC07B0BDE8F08300BF5E
:10538000004800400044004030380240000C024019
:10539000AC410020886002400C42002070477047FA
:1053A000FEE7F0B55200002337240025AA4208BFCB
:1053B000F0BD04EB1076070FB0F1204F4FEA00105C
:1053C00038BF07F130064E5545F0010602358B55C2
:1053D000ECE700000268B0F1804F0ED0264B9842F7
:1053E0000BD0264B984208D0254B984205D0254B30
:1053F000984202D0244B984203D14B6822F07002AD
:105400001A43B0F1804F20D01B4B98421DD01B4B4C
:1054100098421AD01A4B984217D01C4B984214D07D
:105420001B4B984211D01B4B98420ED0164B984202
:105430000BD0144B984208D0174B984205D0174B0D
:10544000984202D0164B984203D1CB6822F44072A6
:105450001A4302600B4B8A68C2620A88826240F477
:1054600080629A4204BF097C0163416941F00101F5
:1054700041610020704700BF000400400008004068
:10548000000C0040000401400000014000180040F2
:10549000001C004000200040004001400048014046
:1054A0000044014010B5034C0348611CFBF791FC1C
:1054B000207010BD1603002034B60008BFB5244D7F
:1054C00019481A4A6FF07F41C5E90021A86003F02E
:1054D0007DFF95E8190029462A4642F8103F2B46E1
:1054E00041F80C0F124843F8144F05F118040290CC
:1054F0001048019000200090204604F0D3FD204683
:1055000004F072FE95F84700400703D4204604F0EB
:1055100071FE02E0204604F09CFE0749204604B0DC
:10552000BDE8B04004F092BEC0A80101C0A801E6E9
:1055300001810008658200089984000880B504484C
:10554000183002F03FFFBDE8804005F0E5BA00BF2B
:105550006803002080B50F480F49002201F01AF9B6
:1055600008B1FBF735FC0B480C4901F0E6FA08B12D
:10557000FBF72EFC07480A4900F09FFF08B1FBF734
:1055800027FC044801F0EDFA18B1BDE88040FBF7B4
:105590001FBC80BDC03C0020180000204C01002032
:1055A00070020020FEE770470148FDF71BBE00BFF8
:1055B0006C4200207047B0B591E83C0042628362C3
:1055C00045EA04030A6949691A431143C26A22F091
:1055D000F7021143C1620020B0BD006800F0030073
:1055E00070470844406970470148FEF7E3BD00BFBB
:1055F0006C460020B0B51143049A446847F6FF6535
:1056000019431143059AAC431143069A11432143B0
:1056100041600020B0BD80B5032101600220FCF78D
:10562000C3FD002080BDD0F88000704770B591E8C0
:105630003C0040F6FF76234382602B43C268096931
:10564000B24319431143C160002070BD0968C0F81E
:1056500080100020704710B586B004464FF480607B
:10566000059000200490402003903720CDE90110E0
:1056700001A92046FFF7DAFF2046372141F28832A0
:1056800006B0BDE8104000F005BA000010B586B0C5
:1056900004464FF480600590002004904020039061
:1056A000292002900648084301A901902046FFF7EF
:1056B000BDFF204606B0BDE8104000F09DBA00BF17
:1056C0000000108010B586B004464FF4806005904D
:1056D00000200490402003901020CDE9011001A982
:1056E0002046FFF7A3FF2046102141F2883206B082
:1056F000BDE8104000F0CEB910B586B004464FF4B6
:105700008060059000200490402003900620CDE9A1
:10571000011001A92046FFF789FF2046062141F22A
:10572000883206B0BDE8104000F0B4B910B586B0BC
:105730000446002001A9CDE90300CDE901004FF4A2
:10574000806005902046FFF771FFA9484FF4FA5199
:105750000068B0FBF1F041F288314843C0430130AA
:1057600006D2616B0906FAD5C520A063002001E0CE
:105770004FF0004006B010BD10B586B004464FF49F
:10578000806001A90590002004904020039008202B
:1057900002904FF4D57001902046FFF747FF9448E0
:1057A0004FF4FA510068B0FBF1F041F28831484300
:1057B000C043013013D2616B11F0450FF9D011F4E1
:1057C0000061F6D1606B40070CD4606BC0070BD151
:1057D000606B400644BF4020A063002006E04FF00D
:1057E000004003E0042000E00120A06306B010BDEB
:1057F00010B586B004464FF48060059000200490F8
:10580000402003901220CDE9011001A92046FFF7A6
:105810000DFF2046122141F2883206B0BDE810404B
:1058200000F038B910B586B004464FF4806005909A
:1058300000200490402003901120CDE9011001A91F
:105840002046FFF7F3FE2046112141F2883206B0D0
:10585000BDE8104000F01EB910B586B004464FF404
:10586000806001A90590002004904020039007204B
:10587000CDE901202046FFF7D9FE2046072141F25D
:10588000883206B0BDE8104000F004B910B586B00B
:1058900004464FF48060C02105900020039102214E
:1058A0000490CDE9010101A92046FFF7BFFE204683
:1058B00006B0BDE8104000F079B910B586B00446D6
:1058C0004FF48060059000200490C02003900920D0
:1058D000CDE9011001A92046FFF7A8FE204606B039
:1058E000BDE8104000F062B910B586B004464FF430
:1058F0008060402105900020039133210490CDE980
:10590000010101A92046FFF791FE2046332141F213
:10591000883206B0BDE8104000F0BCB810B586B0C3
:1059200004464FF4806005900020049040200390CE
:105930000D20CDE9011001A92046FFF777FE204692
:105940000D2141F2883206B0BDE8104000F0A2B847
:10595000B0B586B00C4605464FF4806040210590F6
:105960000020039103210490CDE9010101A92846FB
:10597000FFF75CFEB0484FF4FA510068B0FBF1F05D
:1059800041F288314843C04301301FD2696B11F0A6
:10599000450FF9D011F40061F6D1686B400718D4B7
:1059A000686BC00717D12869C0B2032817D1C5207A
:1059B000A863686910F4604F13D0410415D4000443
:1059C0004FF4805058BF4FF4803006E04FF0004055
:1059D00003E0042000E00120A86306B0B0BD012070
:1059E000FBE7000C20800020F7E74FF40050F4E7BD
:1059F0004801002010B586B004464FF48060402175
:105A00000590002003910C210490CDE9010101A92A
:105A10002046FFF70BFE044A20460C2106B0BDE8E5
:105A2000104000F037B800BF00E1F50510B586B0B2
:105A300004464FF4806005900020049040200390BD
:105A40001920CDE9011001A92046FFF7EFFD2046FE
:105A5000192141F2883206B0BDE8104000F01AB8B2
:105A600010B586B004464FF4806005900020049085
:105A7000402003901820CDE9011001A92046FFF72E
:105A8000D5FD2046182141F2883206B0BDE810400D
:105A9000AFF3008010B5034667484FF4FA5400682E
:105AA000B0FBF4F05043013001386FD05A6B12F064
:105AB000450FF9D012F40062F6D1586B400768D454
:105AC000586BC00767D1C52098631869C0B2884277
:105AD0001CBF012010BD5869334908425ED0002820
